:100000000C94D6010C9426170C94F3010C94F30174
:100010000C94F3010C94F3010C94F3010C94F30190
:100020000C94F3010C94F3010C943F1E0C94111FDB
:100030000C9454190C94F3010C94F3010C94F301F7
:100040000C94F3010C94F3010C94F3010C94F30160
:100050000C94F3010C94F9190C94F3010C94F30132
:100060000C94F3010C94F3010C94F3010C94F30140
:100070000C94F3010C94F3010C94F3010C94F30130
:100080000C94F3010C94F3010C94F3010C94F30120
:100090000C94F3010C94F3010C94F3010C94F30110
:1000A0000C94F3010C94F3010C94F30154045404E4
:1000B00080048004E104E905E905E905FF0475050C
:1000C000860586051C158E152415EE14F2142815C8
:1000D000F5142B1536150015841504153A15081559
:1000E0003E1568150C154215721512154815521556
:1000F000F9142F15FC14321517154D155E157E15C4
:100100008015EA14201597156216681656165C16A7
:100110006E1674167A16791FA01F9820A01F9820BB
:10012000EC1F0F209820662075202B0014001A0069
:100130000800150017002900040016000700090038
:100140000A00E1001D001B00060019000500000068
:1001500000000000E00065002C412A00130012009E
:100160000C0018001C00340033000F000E000D00BE
:100170000B00283238003700360010001100000054
:1001800000000000E60023522C4200001E001F0069
:1001900020002100220000000000000000000000FC
:1001A000000000000000000000000000000000004F
:1001B000000000000000000000002A0027002600C8
:1001C000250024002300670057005E005D005C00EE
:1001D0005500000056005B005A0059005400000012
:1001E0000000000062006300000035001E021F02D4
:1001F00020022102220235023400360226022F029A
:100200002F00380034020000000000000000000051
:10021000000000000000000000002A002702260263
:100220002502240223023102330237022702300260
:100230003000310033002E022E002D022D00000070
:100240000000000000000000000000003A003B0039
:100250003C003D00A70000003E003F004000410080
:100260000000A5004200430044004500A600000035
:10027000000000000000000000004C004A00AB003D
:10028000A9004B00AC00AD00AE004F005200510081
:10029000500046004D00A800AA004E0005000000D6
:1002A0000000000000000000000030036800610052
:1002B0006E006400770069007200650064002F0022
:1002C00063006F0072006E0065005F006C006100EB
:1002D000720072005F007600310000000A036C00BB
:1002E00061007200720000000403090409023B006F
:1002F000020100A0FA090400000103010100092124
:1003000011010001224000070581030800010904D2
:100310000100010300000009211101000122320047
:10032000070582032000011201000200000008ED11
:10033000FE000000010102000105010980A1018504
:100340000319012AB700150126B700950175108120
:1003500000C0050C0901A101850419012AA002159C
:100360000126A002950175108100C005010906A1B2
:1003700001050719E029E715002501950875018198
:10038000029501750881010507190029FF1500264E
:10039000FF009506750881000508190129059505D6
:1003A00075019102950175039101C00011241FBED2
:1003B000CFEFDAE0DEBFCDBF11E0A0E0B1E0E0EFCB
:1003C000F2E402C005900D92A23BB107D9F722E0FA
:1003D000A2EBB1E001C01D92AF3AB207E1F70E9473
:1003E000A1140C9476210C9400008430B0F4683091
:1003F000A0F4463090F490E3899FF001112486E048
:10040000689FE00DF11D1124E40FF11DEE0FFF1F99
:10041000E65DFE4F85919491089581E090E0089506
:100420000E94F501089581E0089581E008950E94F9
:10043000150208950E94170208950E94150208955A
:1004400008950E9420020895A6E0B0E0EAE2F2E0FA
:100450000C94E62049835A839E833091B9018981A7
:100460009A81311115C03E81332359F0222349F07E
:100470000E94A707182F682F89819A810E948307FD
:1004800003C00E949507182F69817A81812F04C0CB
:100490000E94A70769817A810E94B40E2696E3E044
:1004A0000C940221FC01262F4081518162817381CD
:1004B000848195810E9424020895CF93DF93EC01FB
:1004C00061E00E945202BE010E941A02DF91CF91A8
:1004D0000895CF93DF93EC0160E00E945202BE01C9
:1004E0000E942102DF91CF91089508950E945A063B
:1004F0000E9475022FEF84E39CE0215080409040E1
:10050000E1F700C0000008950E9476020E941F1AC1
:1005100008950E9476020E94301A08950F931F9347
:10052000CF93DF938C0161E00E945202EC01B8018D
:100530000E941D02882309F442C0B801CE010E9426
:100540004A168823E1F1B801CE010E94C61488231F
:10055000B1F1B801CE010E94B015882381F1F801F4
:100560008581882341F1C3308CE7D807D1F040F46E
:10057000C115FCE7DF0791F0C130DC47A1F01BC0DB
:10058000CB35ECE7DE07A9F0CC35FCE7DF0771F0EF
:10059000CA35DC4781F40E94FC0B0DC00E94840226
:1005A0000EC00E94040C0E94890209C00E94F20B36
:1005B00002C00E94000CC8010E94130201C080E02A
:1005C000DF91CF911F910F9108950E942D190E94E4
:1005D0000C0308950E9410030E943619089508958F
:1005E00081E008950895CF93DF93D82F0E94F00201
:1005F000C82F882319F08D2F0E94F2028C2FDF91D3
:10060000CF9108950895CF93C82F0E94EF028C2FA9
:100610000E94F302CF91089580E00E9403030895A1
:100620000E9451180E9403030895CF930E9451180D
:10063000C82F8091B401C81779F0C093B4010E940B
:10064000C2196093B5017093B6018093B70190937E
:10065000B8018C2F0E940303CF910895ADE0B0E064
:10066000E4E3F3E00C94E720488759876A877B87A7
:100670008C879D8791110E94160BCE01019627E071
:10068000FC0111922A95E9F726E0FE013896DC017B
:1006900001900D922A95E1F72D8121110AC029813F
:1006A0003A814B815C816D817E818F810E94570AE6
:1006B00004C00E945D028111F2CF2D96E2E00C94FD
:1006C0000321FC012481213021F4808191810E9449
:1006D000D9070895CF93882309F447C0C82F8CEF1A
:1006E0008C0F813AD0F46C2F809100019091010120
:1006F0000E94C618882349F06C2F809100019091C8
:1007000001010E94FF180E94520B6C2F8091000182
:10071000909101010E94FC180CC080E28C0F88307F
:1007200058F4C77081E001C0880FCA95EAF70E94AB
:10073000F00A0E94520B19C0EBE5EC0FE33040F4D5
:10074000F0E0E659FE4F808190E00E9470180DC0E5
:10075000C85ACB3150F4EC2FF0E0EE0FFF1FEC5CE9
:10076000FE4F808191810E949518CF910895882332
:1007700059F1682F8CEF860F813A38F4809100018F
:10078000909101010E94FF180CC080E2860F883012
:1007900058F4677081E001C0880F6A95EAF70E94FB
:1007A000F60A0E94520B08958BE5860F833028F4D9
:1007B00080E090E00E9470180895685A6B3120F430
:1007C00080E090E00E94951808951F93CF93DF93E7
:1007D000182FEB010E946A03209741F08FE99FE0F8
:1007E0000197F1F700C000002197F6CF812F0E94FA
:1007F000B703DF91CF911F910895893319F060E01D
:1008000070E002C060E570E00E94E503089588236F
:1008100021F00E94F00A0E94520B0895882321F0D3
:100820000E94F60A0E94520B0895A0E0B0E0EBE1AE
:10083000F4E00C94E1207C01162FC72FFC01D58138
:10084000068102950F700E94E60A8823E9F0DD23F5
:10085000D9F08C2F807F803451F080E2810F883076
:1008600098F0011104C08C2F807E803269F0809155
:100870008B0282FF09C082E00E94C60B0E94E60A3A
:1008800091E0D82ED92601C0D12CCC2EC2948FE075
:10089000C8228C2D90E08C30910508F09AC1FC01A3
:1008A000EA5AFF4F0C94D1208C2F807FCF70882381
:1008B00011F0C295C07FDD2399F0CC2309F475C1F6
:1008C00080E2810F883010F0111104C08C2F0E943B
:1008D000F00A03C08C2F0E94060B0E94520B65C1C8
:1008E000812F0E94B703CC2309F473C180E2810FEA
:1008F000883038F1112329F18C2F0E940C0B24C071
:100900008C2F807FCF70803211F0C295C07F112371
:1009100019F0113099F13CC080918B0282FD17C013
:10092000DD2349F0CC2329F08C2F0E94F00A0E948D
:10093000520B80E03BC180E00E94B703CC2309F456
:1009400048C18C2F0E94F60A0E94520B42C1DD233F
:1009500049F0002309F1013009F03BC18C2F0E94BE
:10096000230B37C1011135C18C2F0E940E048C2F2F
:100970000E942F0B8C2F0E94990B2BC1DD2321F09D
:10098000063008F026C108C0053008F022C115C0A5
:10099000DD2331F0011109C18C2F0E94070419C118
:1009A000002359F0193309F011C1FFEF27EE83E05E
:1009B000F15020408040E1F707C18C2F0E940E04C7
:1009C00008C18C2F86958695837019F0813061F06F
:1009D00000C1DD2321F0812F9C2F937002C080E0A5
:1009E00090E00E947018FDC0DD2321F0812F9C2F24
:1009F000937002C080E090E00E949518F2C08C2FA6
:100A00008370B1F5D111E9C0412F429546954770E9
:100A1000440F440F812F8F7090E09C01042E02C080
:100A2000220F331F0A94E2F714FF0AC08FE090E010
:100A300002C0880F991F4A95E2F78095909502C0F1
:100A400080E090E0C695C695C370822B932BC23090
:100A500049F058F4C13019F00E94B606BEC00E9499
:100A6000AD06BBC00E94BF06B8C00E94AA06B5C0B2
:100A7000DD2319F08C2F817001C08695882309F43D
:100A8000ACC0412F429546954770440F440F812FCB
:100A90008F7090E09C01042E02C0220F331F0A9435
:100AA000E2F714FF0AC08FE090E002C0880F991FA0
:100AB0004A95E2F78095909502C080E090E0C69557
:100AC000C695C370822B932BC23049F058F4C130C5
:100AD00019F00E941E0781C00E9415077EC00E9467
:100AE00027077BC00E94CB0678C0CF70DD2339F08A
:100AF0008C2F0E94E306812F0E9407046EC0812F75
:100B00000E940E048C2F0E94F30667C0123F21F151
:100B100028F4103F41F0113FC1F043C0133F19F1D9
:100B2000143F79F03EC0DD2341F0053008F051C09C
:100B30008C2F8F710E9405074CC0063008F049C009
:100B4000F7CF80918B0282FD18C0DD2339F08C2F06
:100B50008F710E94E3063DC0DD23C9F38C2F8F7196
:100B60000E94F30636C0DD2329F08C2F8F710E947E
:100B7000D7062FC00E94D2062CC0DD2349F0CF71CA
:100B80008C2F0E94E30663E08C2F0E94A80B21C0EB
:100B900081E00E94C60B0230E0F082E00E94C60BAA
:100BA00018C0DD2331F0002391F2812F0E946A03E7
:100BB00010C0002399F2193349F49FEFE7EEF3E0F8
:100BC0009150E040F040E1F700C00000812F0E940A
:100BD000B70388EF8C0D843020F40E9451180E94D6
:100BE0000303DD2089F00E94E20A80FD0DC0F701B9
:100BF00015820E94DC0A0E94E306C7010E942106BA
:100C00000E94DC0A0E94F306CDB7DEB7E8E00C9440
:100C1000FD200F931F93CF93DF93EC0168817981BF
:100C20008D810E94E4078C010E9430070E949B0680
:100C3000B801CE010E941504DF91CF911F910F9151
:100C40000895CF93DF93FC0124812223D1F0EC019E
:100C50000E948E0281110FC00E94E60A882389F04B
:100C60008D81882371F080918B0282FF0AC082E01F
:100C70000E94C60B06C0CE010E940906CE010E944A
:100C80006902DF91CF91089580E090E00E94701892
:100C900080E090E00E9495180E94160B0E94520B73
:100CA000089580910001909101010E9402190E9413
:100CB000440608950E94000B0E94510608959295E3
:100CC0009F70963079F010F4925001C09A50923093
:100CD00068F4803F69F018F4883E40F409C0843F0E
:100CE00029F406C0883E20F0813F11F080E008958D
:100CF00081E00895FC012481222339F080819181D3
:100D00000E94D9070E945F06089580E00895A6E03A
:100D1000B0E0EDE8F6E00C94E7202696E2E00C94D3
:100D20000321A7E0B0E0E7E9F6E00C94E72027967E
:100D3000E2E00C940321089508950E949C06089512
:100D40000E949D0608950E94A0069093D50180936D
:100D5000D40108950E94A30608952091D4013091F2
:100D6000D501822B932B0E94A30608952091D401D4
:100D70003091D501822393230E94A30608952091E8
:100D8000D4013091D501822793270E94A3060895AC
:100D90000E949C0608950E94C8069093D3018093F8
:100DA000D201089580E090E00E94CB06089521E0F2
:100DB00030E0A90102C0440F551F8A95E2F7CA012D
:100DC0000E94CB06089521E030E002C0220F331FBD
:100DD0008A95E2F78091D2019091D301822B932BD7
:100DE0000E94CB06089521E030E002C0220F331F9D
:100DF0008A95E2F7209530958091D2019091D301A8
:100E0000822393230E94CB06089521E030E002C0A4
:100E1000220F331F8A95E2F78091D2019091D3017E
:100E2000822793270E94CB0608952091D20130910A
:100E3000D301822B932B0E94CB0608952091D201DF
:100E40003091D301822393230E94CB0608952091F1
:100E5000D2013091D301822793270E94CB060895B7
:100E60000895962F9770A1E001C0AA0F9A95EAF70E
:100E700093E0769567959A95E1F7660F771F660F71
:100E8000771FFA01E60FF71F40E050E0682F70E08F
:100E900090819B01042E02C0369527950A94E2F7B3
:100EA0002170219529272A23292721934F5F5F4FFE
:100EB0004430510569F70895FB01782F777023E0DE
:100EC000969587952A95E1F7880F991F880F991FA6
:100ED000E80FF91F40E050E080E0219130E0072E5C
:100EE00002C0369527950A94E2F721703327042E25
:100EF00001C0220F0A94EAF7822B4F5F5F4F443004
:100F0000510559F70895282F983070F4863060F411
:100F1000862F622F70E026E0929F600D711D1124D4
:100F20004AEB51E00E9431070895983070F4863002
:100F300060F4292F90E06AEB71E036E0239F800D8A
:100F4000911D11240E945C07089580E00895A0E09F
:100F5000B0E0EDEAF7E00C94E0207C010091D201D2
:100F60001091D3018091D4019091D501082B192BB8
:100F7000CFE0D0E0CC24C394D12CC6010C2E02C00B
:100F8000880F991F0A94E2F780239123892B21F47B
:100F9000219798F7B12C07C0BC2EB7018C2F0E9467
:100FA000C00E0197A9F38B2DCDB7DEB7E9E00C9405
:100FB000FC20CF93DF93EC010E94A707BE010E94A3
:100FC000C00EDF91CF9108951F93CF93DF93EB0174
:100FD0009091B901992321F0CB010E94D90713C048
:100FE000882349F0CB010E94A707182F682FCE0154
:100FF0000E94830704C0CB010E949507182FBE01F1
:10100000812F0E94C00EDF91CF911F9108951F93F1
:10101000CF93DF93C091D60117E08091D701C81715
:10102000A1F0D0E01C9FF0011D9FF00D1124E852AB
:10103000FE4F208131814281538164817581868197
:101040000E9491062196C770E8CFDF91CF911F9142
:101050000895209110023091110240911202509196
:1010600013026091140270911502809116020E9481
:1010700091060895CF93DF938091160282958F7029
:1010800009F04EC080911502882309F449C080916F
:10109000D6014091D7015091110260911002C09188
:1010A0001202D091130277E08417D1F190E0789F7B
:1010B000F001799FF00D1124DF01A852BE4F149664
:1010C0002C911497222349F111962C9111972513F5
:1010D00024C02C91261321C015962C91159721110F
:1010E0001CC012962D913C9113972C1B3D0B283C54
:1010F000310598F4809116028F70806180931602FA
:10110000E252FE4F80818F708061808380E192E0A7
:101110000E9421060E94070803C001968770C4CF71
:10112000DF91CF9108952091D6019091D70157E09A
:101130002917A9F030E0529FF001539FF00D1124C0
:10114000E852FE4F7181761306C07081781303C098
:101150007581741306C02F5F3F4F2770E9CF80E081
:10116000089581E00895A4E1B0E0E9EBF8E00C9483
:10117000DD208C0186E0F801DE011F9601900D92C2
:101180008A95E1F7F8018481E58090E1A92E92E04B
:10119000B92E90911402911118C0882309F480C1CE
:1011A000EE20D9F1C8010E947A06F82E8823A9F111
:1011B00087E0F801D50101900D928A95E1F7C5010C
:1011C0000E9461030E943A0898C0F801C080D18053
:1011D00082809380F09015022091120230911302C8
:1011E000A401421B530BFF2009F406C1483C5105E2
:1011F00008F0AFC0882309F455C180911602282F4A
:10120000207F90911102222361F09D1509F462C0A4
:10121000C8010E947A06811173C0C8010E9421068C
:101220003FC19D1115C0909110029C1111C0E11099
:101230000FC08F708061809316020E94290880E1A0
:1012400092E00E94210680911602F801868326C151
:10125000E1103AC040E06D2D8C2D0E94930840E0D3
:101260006D2D8C2D0E949308E82E811117C1CF8619
:10127000D88A8F8598890E94D907292F22952F70A7
:10128000243020F49F70223028F009C02A502230E8
:1012900080F014C0992349F0811107C013C099232D
:1012A00021F0F8019681907F69F0805E883030F4FB
:1012B00009C0803F38F0815F833020F0C8010E9470
:1012C0002106EF2CFE2CEEC08091160281608093E7
:1012D0001602E4C0909110029C119ACFE11098CFB1
:1012E000F8018683C8010E94210687E0F801A0E189
:1012F000B2E001900D928A95E1F70E942908D2C0D0
:10130000EE2009F48ACF20911602822F82958F70E9
:1013100090E002978CF080911002909111029987D1
:1013200088879B868A86809114028C871D862E87EB
:10133000CE0108960E94210687E0F801A0E1B2E004
:1013400001900D928A95E1F70E943A080E942908BF
:10135000A7C090911602292F207FA1F4682D9A8AA8
:10136000898AA6017A899E2D0E94870680E192E0F3
:101370000E94210687E0F50111928A95E9F70E9403
:1013800029088CC0882309F48DC0809111028D1129
:1013900011C0809110028C110DC0E1100BC0F8013A
:1013A0009683C8010E94210687E0F50111928A9573
:1013B000E9F778C0C8010E947A06882309F42DCF86
:1013C000EE2009F42ACF20911602822F82958F7089
:1013D00090E002970CF4B0CF80911002909111022E
:1013E0009A8389839C828B82809114028D831E82D2
:1013F0002F83CE0101969ECF483C510508F040C096
:10140000882309F44DC0FE2CEE2009F406CF80910C
:1014100011028D1127C0809110028C1123C0909170
:10142000160290FD16C0892F82958F70282F30E00C
:101430002115310571F0F80196832F30310509F43B
:1014400051CF8F5F982F9295907F86818F70892BD7
:1014500048CF87E0F801A0E1B2E001900D928A95B3
:10146000E1F720C0C8010E947A06811165CF809102
:101470001602816080931602C8010E94210612C0E4
:10148000682D9A8A898AA6017A899E2D0E948706EC
:1014900087E0F50111928A95E9F72FCFF12C02C070
:1014A000FF24F3948F2D6496ECE00C94F920AEE0C9
:1014B000B0E0EDE5FAE00C94E620288739874A870A
:1014C0005B876C877D878E87CE0108960E94B30864
:1014D000882361F06C856623A9F1288539854A85C2
:1014E0005B857D858E850E9491062CC087E0FE017C
:1014F0003896DE01119601900D928A95E1F76C8580
:10150000662301F12091D70130E0C901019687706F
:1015100099274091D60150E084179507E1F16D833A
:1015200097E0929FD001939FB00D1124A852BE4F17
:10153000FE01319601900D929A95E1F78093D701C3
:101540000E94070817E08091D6019091D701891772
:1015500079F1189FC001112488529E4F0E94B30850
:10156000882331F1E091D6011E9FF0011124E85249
:10157000FE4F208131814281538164817581868152
:101580000E9491068091D60190E00196877099277C
:101590008093D601D8CF0E945A061092D70110929C
:1015A000D601E0E1F2E087E0DF011D928A95E9F7DC
:1015B0002E96E3E00C94022180911F028695869579
:1015C0008695089580911F028770089590911F025B
:1015D000977081E009F480E0089580912B020895CE
:1015E00090912B02892B80932B02089580959091E6
:1015F0002B02892380932B02089580932B02089558
:1016000010922B02089580912A02089590912A0247
:10161000892B80932A020895809590912A0289232C
:1016200080932A02089580932A02089510922A0234
:10163000089580912102089508950E941C0B089539
:101640000E941D0B089590912102292F28238217B3
:1016500029F0982B909321020E94200B08959091DD
:101660002102292F282331F080958923809321029C
:101670000E94200B089590918B0292FF08C09091D8
:101680002102981721F0809321020E94200B0895D7
:1016900080912102882329F01092210280E00E948B
:1016A000200B0895CF93DF93E0910001F0910101A9
:1016B00080912B028083E0910001F09101019081E3
:1016C00080912A02892B808380912102882381F0D6
:1016D000E0910001F09101019081892B808380913C
:1016E0000001909101010E94BA1881110E94480BDB
:1016F000C0910001D091010148E050E067E172E043
:10170000CE010E940E21892B59F088E0FE01A7E14D
:10171000B2E001900D928A95E1F7CE010E94651822
:10172000DF91CF9108950E941C0B08950E94930BA6
:10173000089590912002292F282331F08095892344
:10174000809320020E94960B08950E941C0B08951E
:1017500090918B0292FF11C098E0899F9001112413
:10176000262B20931F020E94E30680911F0286957C
:10177000869586950E94A50B08950E94E30608951C
:1017800010921F0280E00E94A50B089590911F0205
:101790008095892380931F02282F277069F498175A
:1017A00059F090918B0292FF07C086958695869599
:1017B0000E94F3060E94C00B089590918B0292FB49
:1017C000222720F9281769F080FB92F990938B0269
:1017D00080918A0290918B020E94250C82E00E94E7
:1017E000C60B089580918B0282FB882780F991E0D7
:1017F00089270E94DD0B089581E00E94DD0B08958A
:1018000080E00E94DD0B08956FEF7FEF80E090E0B5
:101810000E946021089580E090E00E942C2121E048
:10182000863E9E4F09F020E0822F089582E090E0EE
:101830000E942421089583E090E00E9424210895CD
:1018400084E090E00E942C210895BC0184E090E0A7
:101850000E9460210895AB01BC018FE090E00E94DE
:1018600054210895AB01BC0183E190E00E94542112
:10187000089560E070E0CB010E94320C089560E0B2
:1018800070E0CB010E942B0C0E94390C0895A8E057
:10189000B0E0EDE4FCE00C94E72066EE7EEF80E043
:1018A00090E00E94602160E082E090E00E9442218E
:1018B00060E083E090E00E9442211092D5011092F6
:1018C000D40160E074E184E090E00E94602160E077
:1018D00086E090E00E9442216FEF87E090E00E9456
:1018E000422140E050E0BA0188E090E00E9454219B
:1018F00060E084E290E00E94422160E087E190E0B5
:101900000E94422160E08CE090E00E94422160E071
:101910008DE090E00E94422119821A821B821C8273
:101920001D821E821F82188648E050E068E170E048
:10193000CE0101960E94322140E050E0BA0180E2DF
:1019400090E00E9454210E943F0C2896E2E00C9403
:1019500003210E94470C08958EE090E00E9424210C
:1019600091E0811101C090E0892F0895682F8EE0E9
:1019700090E00E9442210895A6E0B0E0E2ECFCE095
:101980000C94E5200E94B6198C0180912C02909154
:101990002D020817190781F019821A820E94B619C0
:1019A000682F49815A81792F80E090E00E942E03B0
:1019B00010932D0200932C022696E4E00C94012152
:1019C0000E94CA0F60933A0270933B0280933C02DC
:1019D00090933D02609336027093370280933802F1
:1019E00090933902089581E008950E94B5110895F9
:1019F00008950E94F80C08950E94F80C08950E9422
:101A0000FC0C08950E94F80C08950E94020D0895A0
:101A10000E94F80C089584EE9FE00E9447180E94EF
:101A2000080D0E94050D08950E94F90C0E94F80C03
:101A300008950E94E70F0E94020308950E94AD19C5
:101A40000E94A40F0E94DB110E9415110E94190D23
:101A50000E94AE140E94EB110E94FF0C0895A6E0B4
:101A6000B0E0E5E3FDE00C94DE200E94F30C811170
:101A700003C00E94BC0C53C00E943A118EE2E82EB3
:101A800082E0F82E670100E0F60111916F01802FCE
:101A90000E94051081270F5F083019F08823A1F3F9
:101AA00002C0882331F380913E0281FD0E940B1019
:101AB0000E94F50CA82E10E099249394812F0E9487
:101AC0000510B82EF701C080C82609F100E0DD241A
:101AD000D3948C2D8D21A9F0AA2099F009831A8323
:101AE0000E94B6199C838B839D8291E08B2D8D2162
:101AF00009F490E049815A816B817C818D810E943B
:101B00002E030F5FDD0C063021F7F701B0821F5F57
:101B1000FFEFEF1AFF0A183089F60E94E00C0E94CE
:101B2000B5110E9415032696EBE00C94FA201F9342
:101B3000CF93DF930E94C50EEC01C11580E5D80755
:101B4000E8F5C11590E4D90708F0A8C0C03ED1055A
:101B500030F5CD3CD10508F094C0C83AD10578F4F1
:101B6000C53AD10508F083C0C130D10509F47CC065
:101B700008F4F2C0C430D10508F0F1C0EDC0C33C98
:101B8000D10508F0E9C0C85AD0E0CC0FDD1FC35919
:101B9000DE4F0990D881C02DCE019464E1C0C115FB
:101BA00080E2D80708F0CBC0C11591E0D90708F052
:101BB0006BC0C83ED10508F4D2C0CEC0C03682E5A5
:101BC000D80728F5C03492E5D90708F079C0C032AB
:101BD00082E5D80708F06CC0C11592E5D90708F472
:101BE00081C04C2F4695469580E2489FA001112464
:101BF000C37021E030E0C90102C0880F991FCA9567
:101C0000E2F7EA01C82BD92BCE019D68A9C0C03AE2
:101C100082E5D807B8F48C2F8F71C03892E5D907C8
:101C200008F07BC08695869590E2899F90011124EB
:101C3000C37081E090E002C0880F991FCA95E2F757
:101C40009A6868C0C03C82E5D80708F46DC0C03E01
:101C500092E5D90708F080C0CF71DD27DC2FCC27B3
:101C6000CE01806F906A7CC081E090E079C0C55A57
:101C7000D0E0CD55DE4F8881C82FD0E0CE019064F2
:101C80006FC0CE0190656CC08D2F0E94610F182F20
:101C9000CE0199270E94C50E1F715CC0CE01992705
:101CA0000E94C50ECC27DF70D06A8C2B9D2B58C0AC
:101CB000CF71D0E0DC2FCC27CE01816F906A50C06D
:101CC0008C2F8F718695869590E2899F90011124C3
:101CD000C37081E090E002C0880F991FCA95E2F7B7
:101CE0009C6818C08C2F8F710E94610F95E0D6956B
:101CF000C7959A95E1F7CF70D0E0DC2FCC27282F3D
:101D000030E084FF05C084E0220F331F8A95E1F79D
:101D1000D069CE01822B932B23C090E0D82FCC2703
:101D2000CE01846F906A1CC08C2F8F710E94610F4E
:101D30008F7190E0D82FCC27CE01906211C08D2FEB
:101D40008F710E94610F182FCE0199270E94C50E36
:101D50001F719062912B04C080E090E001C0CE0121
:101D6000DF91CF911F910895783038F4663028F4D0
:101D7000462F672F0E941002089580E090E008959A
:101D80000E94B40E0E94970D08958238910569F162
:101D9000B0F48133910509F475C048F48932910596
:101DA00009F467C08A32910509F471C0089585333A
:101DB000910509F459C089339105B9F00895833E1E
:101DC000910589F138F4803E9105D1F0823E91056C
:101DD00029F10895863E9105C9F1873E9105D9F113
:101DE000843E910509F06CC027C020918A0220FD35
:101DF00057C021FD55C020918B0223FD5BC0089583
:101E000080918A0280FD48C080918B0280FF48C08B
:101E100080918A0284FD46C083EE51C080918A027F
:101E200082FF3CC0F5CF80918A0282FD37C080914D
:101E30008B0280FD35C0ECCF80918B0281FF36C0D4
:101E400080918A0284FD2EC087EE39C080918A027B
:101E500083FF2AC0F5CF80918A0283FD25C080913F
:101E60008B0281FD23C0ECCF80918A0285FD22C0C8
:101E70001FC080918A0285FD1BC080918B0283FF69
:101E800019C00AC080918A0286FD16C017C08091D1
:101E90008A0286FD13C010C089E311C082EE0FC014
:101EA00080EE0DC080E00BC086EE09C084EE07C056
:101EB00085E305C089E203C08AE201C081E390E0C6
:101EC000089590918A0292FF0DC0282F2871283022
:101ED00019F4877F846006C0282F2471243011F400
:101EE0008B7F886093FF0DC0282F2871283119F44B
:101EF000877E846106C0282F2471243111F48B7EE3
:101F0000886120918B0220FF0DC0382F3871383046
:101F100019F4877F816006C0382F3171313011F498
:101F20008E7F886021FF0DC0282F2871283119F479
:101F3000877E816106C0282F2171213111F48E7EA8
:101F4000886194FD877E0895109286021092870220
:101F500010928802109289020895CF92DF92EF9238
:101F6000FF926B017C010E94B51181110EC00E948D
:101F7000C219C61AD70AE80AF90AC0928602D09294
:101F80008702E0928802F0928902FF90EF90DF9042
:101F9000CF9008950F931F930E94B511882319F0D5
:101FA0000E94C2190EC00E94C219009186021091AF
:101FB00087022091880230918902600F711F821F71
:101FC000931F1F910F91089580E0089508950E9436
:101FD0000B0C811102C00E94A90C0E94160C809368
:101FE0003E020E94200C90938B0280938A020E94F2
:101FF000E60F0E941B0C90E00E94AA068091D2017D
:102000009091D3010E94C8060895E82FF0E0EB56A6
:10201000FD4F80810895089580EA8A95F1F708952B
:1020200000C008950E940C10089508950E94151094
:1020300008950E94161008950E94151008950E9498
:102040001C1008950E9415100895A4E0B0E0EBE282
:10205000F0E10C94E5200E94B51160919D02882367
:10206000E9F119821A821B821C82862F90E08E0170
:102070000F5F1F4FB8018B569D4F0E94F9118823A7
:1020800089F080918C0290E044E050E0B8018B56DA
:102090009D4F0E940E2121E020933F02892B69F47D
:1020A00010E019C080913F028823D1F384E0F80149
:1020B00011928A95E9F710923F02E0918C02F0E0CC
:1020C000EB56FD4F89819A81AB81BC8180839183DE
:1020D000A283B38311E00E9419100DC070E06B560B
:1020E0007D4F80918C0290E08B569D4F0E94821212
:1020F0000E94221010E0812F2496E4E00C9401212C
:10210000F894E82FE295EF70F0E031A1282F2F70BE
:1021100081E090E001C0880F2A95EAF7982F90950A
:10212000932391A392A1892B82A3789408950F936E
:102130001F93CF93DF93CCEAD1E089918F3F11F0C9
:102140000E94801081E0C03BD807B9F7C6EAD1E011
:102150000CEA11E089918F3F11F00E9480100C175A
:102160001D07C1F7DF91CF911F910F910895A0E056
:10217000B0E0EDEBF0E10C94E1208C01C62FD0E053
:10218000CE0184559E4F7C01FC0190819F3F09F454
:1021900047C0D62EF894E92FE295EF70F0E081A1C8
:1021A0009F7021E030E001C0220F9A95EAF7822B60
:1021B00081A382A12095282322A378940E94101045
:1021C000E6EAF1E04CEA51E031E0C12C21912F3FE9
:1021D00089F0A22FA295AF70B0E090968C9190E01C
:1021E0002F7002C0959587952A95E2F780FD02C071
:1021F000832F01C080E0C82A330F4E175F0731F7E5
:10220000F70180818F3F11F00E94801061E0C110C2
:1022100001C060E08D2D0E941210C00FD11FC88236
:10222000CDB7DEB7E8E00C94FD20809102018091EB
:102230000201811102C094E001C090E090939D02E0
:1022400084E0891B80938C020E94971088E0E5E966
:10225000F2E0DF01982F1D929A95E9F7EDE8F2E0A0
:10226000DF011D928A95E9F784E00E9478110E94AF
:102270001F100895A8E0B0E0E0E4F1E10C94E42040
:102280008E010F5F1F4F88E0F80111928A95E9F7E0
:10229000F12C6F2DC8010E94B710F394F4E0FF12E7
:1022A000F8CF48E050E0B8018DE892E00E940E219E
:1022B00021E0009709F420E0892B41F088E0F80143
:1022C000ADE8B2E001900D928A95E1F760919D0230
:1022D00070E06B567D4F44E08DE892E00E947911EA
:1022E000182F0E942510812B2896E5E00C940021E0
:1022F0000895EF92FF920F931F93CF93DF937C018A
:102300008B01C42F222349F081E0809342020E9476
:10231000B61990934102809340028091420281114C
:1023200002C080E01AC080914002909141020E9458
:10233000CE190597B0F3D0E0AE01B701C8010E94F5
:102340000E21892B39F0AE01B701C8010E941B2173
:1023500081E001C080E010924202CDB7DEB7E6E036
:102360000C94FF200E94AC0C0895CF93DF938091D2
:102370004502811117C0CAEFD0E00E94CB20811125
:102380000AC08FE39CE90197F1F700C00000219794
:10239000A1F782E001C081E080934502823011F410
:1023A0000E94C62081E090914502913009F080E0C2
:1023B000DF91CF9108950E940B0C811102C00E9401
:1023C000A90C0E94B211809302010E94B5118111E3
:1023D0000E94311208950E94B511811102C00E941D
:1023E0003412089581E0909146029A3008F080E01E
:1023F00008950F931F93CF93DF93EC018B0180918E
:1024000046028A3038F4B801CE010E947F12811151
:102410001DC00AC080914302909144020E94CE19CF
:10242000843F914080F715C0809146028F3F19F09C
:102430008F5F80934602809146028A3060F00E944E
:10244000B619909344028093430203C0109246024F
:1024500002C080E001C081E0DF91CF911F910F9118
:1024600008950E94E11608950E94E4160895A0E0E0
:10247000B0E0EDE3F2E10C94E2207901C82F880F7F
:10248000DD0B41155105A9F0FE0193E0EE0FFF1F92
:102490009A95E1F7ED5FFE4F81819281895B9D4FB7
:1024A000208130E04217530708F49A01A9010E94E5
:1024B0001B21CE010E94CC17D82E8823D1F0011504
:1024C0001105B9F083E0CC0FDD1F8A95E1F7FE011D
:1024D000ED5FFE4F438150E00417150708F4A80193
:1024E000CD5FDE4F6C817D81695B7D4FC7010E94AE
:1024F0001B218D2DCDB7DEB7E7E00C94FE200E94A6
:10250000201408950E9449140895A3E0B0E0EBE878
:10251000F2E10C94E12060916B0270916C02809169
:102520006D0290916E020E94DD196B017C0111E039
:1025300084E6C816D104E104F10408F410E00E9416
:10254000ED0A898394E6C916D104E104F10438F454
:10255000E091B001F091B1019585891311E00E94DD
:10256000030B8A83111109C0E091B001F091B10110
:1025700011E09685981301C010E00E94190B8B831F
:10258000111109C0E091B001F091B1019785891353
:1025900002C011E019C000E010E020E030E043E0AC
:1025A00050E0BE016F5F7F4F84E00E943712182F0A
:1025B000882351F00E94C21960936B0270936C02E1
:1025C00080936D0290936E02812F2396E8E00C9425
:1025D000FD20A4E0B0E0EFEEF2E10C94E520609184
:1025E0006702709168028091690290916A020E946C
:1025F000DD19643671058105910528F10E94CA0F25
:10260000DC01CB010296A11DB11D89839A83AB83A6
:10261000BC8300E010E020E030E044E050E0BE0188
:102620006F5F7F4F83E00E943712182F882361F07D
:102630000E94C219609367027093680280936902D6
:1026400090936A0201C011E0812F2496E4E00C947B
:102650000121A0E0B0E0EFE2F3E10C94DF207C0187
:102660005B016A010E94F211811103C001E010E0D8
:1026700002C00AE010E0C1E0D0E0B501C701F601F8
:102680000995811115C021960C171D0794F0CC9F58
:102690009001CD9F300D300D112480E090E045E396
:1026A0004A95F1F70000019682179307C1F7E5CF2D
:1026B00081E0CDB7DEB7EAE00C94FB200F931F93C7
:1026C000CF93DF93EC016091B0017091B1016B5F2A
:1026D0007F4F44E050E00E940E218C016091630224
:1026E0007091640280916502909166020E94DD19EA
:1026F000643671058105910510F4012BC1F000E0ED
:1027000010E020E030E044E050E0BE0182E00E94B2
:102710003712C82F882361F00E94C21960936302A8
:1027200070936402809365029093660201C0C1E0D9
:102730008C2FDF91CF911F910F910895A5E0B0E00C
:10274000E4EAF3E10C94DF205B01E090B001F0904B
:10275000B10101E010E09E012B5F3F4F40E050E0EF
:1027600060E070E080E00E943712182F882309F49F
:102770003EC067018FEFC81AD80A60915F0270915E
:10278000600280916102909162020E94DD196436BC
:1027900071058105910518F104E010E09E012F5F9D
:1027A0003F4F40E050E060E070E081E00E9437126F
:1027B000182F64E070E0C6010E94AF1491E02D81F3
:1027C000281390E0192351F10E94C21960935F020F
:1027D00070936002809361029093620211C064E082
:1027E00070E0C6010E94AF149D818913D5CFF70117
:1027F00081819281A381B48189839A83AB83BC83D5
:10280000112361F089819A81AB81BC8180935B0245
:1028100090935C02A0935D02B0935E0280915B0294
:1028200090915C02A0915D02B0915E02F5018083FF
:102830009183A283B383812F2596EAE00C94FB2039
:102840000F931F93CF93DF93EC018B014EE953E17C
:102850000E942913811102C080E016C04EE553E1A9
:10286000B801CE010E9429138823B1F349EE52E149
:10287000B801CE010E942913882371F345E852E183
:10288000B801CE010E942913DF91CF911F910F91C2
:1028900008950F931F93CF93DF938C01C091B001E4
:1028A000D091B101CE01019624E0FB01DC01019041
:1028B0000D922A95E1F764E070E00E94AF148883DE
:1028C000FE01359684E0D80101900D928A95E1F7DA
:1028D00069857A858B859C850091570210915802F5
:1028E0002091590230915A026017710782079307AD
:1028F00051F060935702709358028093590290935D
:102900005A020E94AD0F0E851F858D850E94FD0A1B
:10291000802F0E94130B812F0E943B0BDF91CF91E0
:102920001F910F9108950E94941B0E941E0D0E94FA
:10293000A11B08950E94A61B0E942F0D0E94C01B80
:1029400008950E944D190E947A1B0E940B0D0E944F
:1029500093140E949A140E94140DFBCF0895FC0159
:10296000680F791F8FEF91E3E617F70771F0219158
:10297000822728E030E087FF03C0880F892701C045
:10298000880F21503109B9F7EFCF0895CF93DF9326
:10299000FC01DB0115968C91882309F4DDC09F01B1
:1029A00030572332310508F0D8C0EF010E94200CC7
:1029B00090938B0280938A02FE01E150F047E2324D
:1029C000F10520F4EE59FF4F0C94D12080918A023A
:1029D0008160AAC080918B028860B2C080918A0217
:1029E0008260A2C080918A0220C080918A028860A1
:1029F0009BC080918B021EC080918B028260A0C020
:102A000080918A02806190C080918A0280628CC02D
:102A100080918A02806488C00E945A0680918A024E
:102A2000806882C080918A02886084607DC08091C5
:102A30008B028260816084C080918A028E7F74C024
:102A400080918B02877F7CC080918A028D7F6CC0D1
:102A500080918A0220C080918A02877F65C0809120
:102A60008B021EC080918B028D7F6AC080918A028A
:102A70008F7E5AC080918A028F7D56C080918A02D3
:102A80008F7B52C00E945A0680918A028F774CC079
:102A900080918A02877F8B7F47C080918B028D7FD8
:102AA0008E7F4EC080918A0282FB222720F991E01E
:102AB000922790FB82F990FB83F936C080918B02BC
:102AC000982F909591708E7F892B90FB81F938C05B
:102AD00080918A0286FB222720F991E0922790FBC1
:102AE00086F922C00E945A0680918A0287FB22271B
:102AF00020F991E0922790FB87F916C081E001C090
:102B000080E00E94B60C1EC080918A0284FB2227BE
:102B100020F991E0922790FB84F906C080918A0207
:102B2000982F909590FB80F980938A020BC080913A
:102B30008B0283FB222720F991E0922790FB83F9F7
:102B400080938B0280918A0290918B020E94250CC7
:102B50000E945A0680E001C081E0DF91CF91089584
:102B6000CF93DF9386319C4741F5EB010E94ED0A3C
:102B7000982F8D812091000130910101882379F0F7
:102B80009A7A81E009F480E080936F02911102C08B
:102B900069E201C065E3C9010E94FC180AC0809186
:102BA0006F02811102C069E201C065E3C9010E94A0
:102BB000FF180E94520B80E001C081E0DF91CF91AD
:102BC00008950F931F93CF93DF93C42FD22FFC014F
:102BD00085818823B1F0409372020E94B6199093C8
:102BE00071028093700280E28C0F883008F04DC033
:102BF000C77081E001C0880FCA95EAF70E940704F8
:102C000044C080917202481330C08091700290914C
:102C100071020E94CE19883C910538F510E21D0F13
:102C2000CD17B9F080E28C0F883040F4C77081E096
:102C300001C0880FCA95EAF70E940E04183010F5FB
:102C400081E09D2F977001C0880F9A95EAF70E9446
:102C50000704802F0E94FD031830B8F4D77081E07C
:102C600001C0880FDA95EAF70AC080E28C0F88303D
:102C700060F4C77081E001C0880FCA95EAF70E942E
:102C80000E0403C0802F0E94FD03DF91CF911F919E
:102C90000F9108950F93FC01E851FC47E730F105CF
:102CA00090F5CB01EC57FF4F0C94D12006E221EEBA
:102CB00041EE6AE17CE723C007E225EE45EE6BE1D9
:102CC0007CE71DC006E221EE40EE68E17CE717C01C
:102CD00007E225EE44EE69E17CE711C006E221EE51
:102CE00042EE6CE17CE70BC007E225EE46EE6DE1BB
:102CF0007CE705C008E221E045EE6EE17CE70E943A
:102D0000E11580E008C0FB018581882319F010924D
:102D1000720201C081E00F9108958EE1489B02C0CC
:102D20008150E1F7489BFECF0895589880E28A953C
:102D3000F1F7589A0895FC012AE02A95F1F728E066
:102D400090E080E031E040E14A95F1F7880F489B40
:102D500002C08160932700C0000040E14A95F1F76E
:102D6000215089F720E12A95F1F729B100C0000030
:102D700030E13A95F1F7217092272081920F9083EC
:102D80000895A1E0B0E0E7ECF6E10C94E3201982AD
:102D90008C017C01E60EF11C0E151F0551F00E94FE
:102DA0008D16CE0101960E949B16F80181938F012A
:102DB000F3CF81E09981911180E02196E6E00C94B7
:102DC000FF20509A589A08955098589AE89AE9E640
:102DD000F0E080818C7F80830895615091E001C094
:102DE000990F6A95EAF720E031E0992361F0492FC5
:102DF000482319F0589A232701C0589840E24A9571
:102E0000F1F79695F2CF222311F0589A01C0589805
:102E100080E28A95F1F758980895FF920F931F93D7
:102E2000CF93DF93EC018C01060F111DC017D10762
:102E300041F0F9900E94951668E08F2D0E94ED16E2
:102E4000F5CFCDB7DEB7E5E00C9400211F920F92CD
:102E50000FB60F9211240F931F932F933F934F930D
:102E60005F936F937F938F939F93AF93BF93EF93F2
:102E7000FF93CF93DF931F92CDB7DEB719820E94E5
:102E80008D16CE0101960E949B16082F0695069579
:102E90000695902F96959570202F2570920F292FCB
:102EA000237096959695920F877089135FC08981DC
:102EB00081115CC0063008F059C080E18A95F1F7B5
:102EC000589A509A82E08A95F1F700C0589888E0A5
:102ED000089F80011124D801AD5FBE4F1696ED9179
:102EE000FC9117973097A9F06091B0017091B101F2
:102EF00014962D913C911597260F371F11968D91A1
:102F00009C911297680F791F13964C9113978C918F
:102F10000995F801ED5FFE4F6381662351F08091C2
:102F2000B0019091B10124813581820F931F0E94DD
:102F30000D170E94951680E18A95F1F758985098E0
:102F4000589A80E18A95F1F7F801ED5FFE4F6081B4
:102F5000662351F08091B0019091B10121813281BD
:102F6000820F931F0E94C1160E948D160F90DF9151
:102F7000CF91FF91EF91BF91AF919F918F917F91F1
:102F80006F915F914F913F912F911F910F910F90F2
:102F90000FBE0F901F9018950F931F93CF93DF9341
:102FA000863091050CF06DC0EC01F894509A589859
:102FB00085E08A95F1F700009C2F969595702C2F4F
:102FC0002570920F892F83709695969523E0CC0FEC
:102FD000DD1F2A95E1F7980F8E01092B0E949516A7
:102FE00084E08A95F1F700C068E0802F0E94ED161A
:102FF00080E18A95F1F75098589A489902C000C02C
:10300000FCCF87E090E0489B08C0019721F4509ADC
:10301000589A789436C000C0F6CFFE01ED5FFE4F9F
:103020006381662381F08091B0019091B101248188
:103030003581820F931F0E94C116811104C0509ADE
:10304000589A78941FC00E948D1680E28A95F1F7F5
:103050005898509A80E18A95F1F7CD5FDE4F6881EC
:10306000662351F08091B0019091B10129813A819C
:10307000820F931F0E940D170E949516789481E08D
:1030800001C080E0DF91CF911F910F91089590933F
:10309000B3018093B20108959093790280937802EE
:1030A00008950E94B511811103C0809173020895A3
:1030B000E0917802F0917902309729F00190F08147
:1030C000E02D0995089580E00895E0917802F0914F
:1030D0007902309721F00280F381E02D099508955F
:1030E000A3E0B0E0E6E7F8E10C94E7202091760257
:1030F0003091770228173907A1F0909377028093D7
:103100007602E0917802F0917902309751F023E055
:1031100029839B838A830680F781E02DCE01019667
:1031200009952396E2E00C940321A3E0B0E0EBE9DB
:10313000F8E10C94E7202091740230917502281771
:103140003907A1F09093750280937402E0917802A0
:10315000F0917902309751F024E029839B838A8390
:103160000680F781E02DCE01019609952396E2E0D5
:103170000C940321FC01329697E080E0915029F0F5
:1031800021912223D9F38F5FF9CF0895662349F067
:10319000FC01329608962191621729F0E817F90789
:1031A000D1F780E0089581E008959C01FC013296FA
:1031B0009FEF80E04191461789F09F3F19F441113C
:1031C00001C0982F8F5F8630A9F79F3F39F0F90132
:1031D000E90FF11D97FDFA956283089508959C010A
:1031E0002A5F3F4FFC014281461301C012820196C3
:1031F00082179307B9F708950E94D51808950E9481
:10320000EF180895029626E0FC0111922A95E9F73D
:10321000089508950E940919089583E080937A0221
:103220000E940A190895811102C081E001C082E064
:1032300080937A020E940A1908950E941319089532
:1032400081E080937A020E940A1908950E94201951
:10325000089508950E94291908950E942A19089531
:103260000E94291908950E94291908950E94291978
:103270000895CF930E9433190E943A110E94301989
:10328000C0E08C2F0E940510811104C0CF5FC830B0
:10329000C1F701C081E0CF91089585B7806885BFEF
:1032A00085B7806885BF08951F920F920FB60F9261
:1032B00011248F939F93AF93BF9380917B028111D1
:1032C00013C080919E0290919F02A091A002B091A4
:1032D000A1024196A11DB11D80939E0290939F0271
:1032E000A093A002B093A102BF91AF919F918F9143
:1032F0000F900FBE0F901F9018958091A6028430FA
:1033000031F10E94E50210927B0220E488E190E016
:103310000FB6F894A895809360000FBE20936000CC
:1033200083B7817F846083BF83B7816083BF7894D4
:10333000889583B78E7F83BF0FB6F894A895809148
:103340006000886180936000109260000FBE089555
:103350000E945A060E94EA02089582E084BD93E02A
:1033600095BD9AEF97BD80936E0008952FB7F8949E
:1033700080919E0290919F02A091A002B091A10223
:103380002FBF08952FB7F89460919E0270919F020D
:103390008091A0029091A1022FBF08959C014FB788
:1033A000F89480919E0290919F02A091A002B0910A
:1033B000A1024FBF821B930B0895CF92DF92EF9231
:1033C000FF922FB7F894C0909E02D0909F02E09099
:1033D000A002F090A1022FBFA7019601261B370B78
:1033E000480B590BCA01B901FF90EF90DF90CF90C5
:1033F000089578941F920F920FB60F9211248F9315
:103400009F93AF93BF9380919E0290919F02A09152
:10341000A002B091A1020196A11DB11D80939E0250
:1034200090939F02A093A002B093A102BF91AF918D
:103430009F918F910F900FBE0F901F90189587E767
:1034400097E790930108809300089AE088E10FB60F
:10345000F894A895809360000FBE90936000FFCF12
:103460009AE088E10FB6F894A895809360000FBEAB
:1034700090936000FFCF80918402089508959B018E
:103480009091A6029430F1F48F708093E9008FEF51
:103490009091E800815095FD06C095ED9A95F1F761
:1034A00000008111F5CF8091E80085FF0BC0BA01C3
:1034B000C90140E050E00E94381C8091E8008E77FE
:1034C0008093E800089543E050E0BC0182E00E9450
:1034D0003F1A0895CF93DF93EC0148E050E0BC0120
:1034E00081E00E943F1A88E0FE01ACE7B2E0019063
:1034F0000D928A95E1F7DF91CF9108958091A50211
:10350000811109C00E94C31D0E94201E8091E2000B
:1035100084608093E20008951092A50208950E94AD
:10352000261908956091A20281E0611101C080E036
:103530000E940D1908959091A60281E0943009F03F
:1035400080E06091A2020E941319089542E061ECAC
:1035500081E00E943C1D42E261EC82E00E943C1D41
:103560009091A60281E0943009F080E06091A2027F
:103570000E941D1908958091A802833009F461C04A
:1035800030F4813071F0823009F49BC008958A30A4
:1035900009F487C08B3009F46CC0893009F0A9C0E8
:1035A00020C08091A702813A09F0A3C08091E80071
:1035B000877F8093E8008091AB029091AC02892BC9
:1035C00021F468E08CE792E003C060E080E090E0E6
:1035D00070E00E947D1C8091E8008B778093E8006A
:1035E00008958091A702813209F083C08091AB02D7
:1035F0009091AC02029708F07CC08091E800877F30
:103600008093E8008091E80082FD05C08091A602C9
:103610008111F8CF6EC02091F3008091F20090E00C
:10362000922B029731F48091F100813011F08630B5
:1036300021F48091F100809384028091E8008B77DF
:1036400054C08091A702813A09F053C08091AB0227
:103650009091AC02892B09F04CC08091E800877FE3
:103660008093E8008091E80080FFFCCF80913301D7
:1036700037C08091A7028132E1F58091AB02909131
:10368000AC02892BB1F58091E800877F8093E80038
:103690000E94711D8091A902809333010E945A06F5
:1036A00008958091A702813221F58091E800877FFB
:1036B0008093E8000E94711D8091AA028093850288
:1036C00008958091A702813AA1F48091E800877F54
:1036D0008093E8008091E80080FFFCCF8091850214
:1036E0008093F1008091E8008E778093E8000E943B
:1036F000711D089584B7877F84BF0FB6F894A8958D
:1037000080916000886180936000109260000FBE1D
:1037100090E080E80FB6F894809361009093610088
:103720000FBE0E94201908950E94C31D0E94201EF2
:10373000E2EEF0E080818460808378940E94AB2088
:1037400008958BE291E00E944C1808958091A602A2
:103750008530A9F48091A602853079F40E947D1904
:103760008091A4028823B1F30E943919882391F330
:103770000E94221C0E945A06EDCF0E94A8190895AB
:1037800008959A014091AD025091AE020E94C91B6A
:103790000895492F552743305105C9F060F4413051
:1037A000510581F04230510509F044C08BE390E0AF
:1037B0004CEE52E043C041325105E1F04232510536
:1037C00049F138C082E190E047E253E037C09927E1
:1037D0008130910549F028F0029761F5EAEAF2E0BC
:1037E00005C0E8EEF2E002C0ECEDF2E0849190E07A
:1037F000AF0124C06115710541F061307105D1F44C
:1038000089E090E047E153E019C089E090E04EEF95
:1038100052E014C06115710541F06130710551F439
:1038200082E390E049E353E009C080E490E04BE696
:1038300053E004C080E090E040E050E0F9015183A3
:103840004083089580E189BD82E189BD09B400FE0D
:10385000FDCF8091D8008F7D8093D8008091E000CB
:1038600082608093E0008091E00081FDFCCF0895AC
:10387000A0E0B0E0EEE3FCE10C94E120EC018B0170
:103880007A010E94901D811133C0E114F10439F0D6
:10389000F70180819181081B190BC80FD91FC12C1A
:1038A000D12C0115110519F18091E80085FD16C094
:1038B0008091E8008E778093E800E114F10449F0EC
:1038C000F70180819181C80ED91ED182C08285E026
:1038D0000FC00E94901D882321F30AC08991809314
:1038E000F10001501109FFEFCF1ADF0ADACF80E0B3
:1038F000CDB7DEB7E8E00C94FD202091AD02309109
:10390000AE022617370748F06115710539F420918A
:10391000E8002E772093E80001C0B901FC0120E007
:103920006115710579F18091A6028823F1F1853046
:10393000F1F18091E80083FD3CC08091E80082FDB8
:103940002EC08091E80080FFEBCF2091F3008091A2
:10395000F20090E0922B6115710551F088309105CD
:1039600038F421912093F100615071090196F3CF51
:1039700021E0089709F020E08091E8008E7780939D
:10398000E800CECF2111CFCF0AC08091A6028823B4
:1039900061F0853061F08091E80083FD0AC080917C
:1039A000E80082FFF2CF80E0089582E0089583E08E
:1039B000089581E008952091AD023091AE0226175E
:1039C000370748F06115710539F42091E8002E772A
:1039D0002093E80001C0B901FC0120E061157105E8
:1039E00091F18091A602882309F440C0853009F442
:1039F0003FC08091E80083FD3DC08091E80082FDDA
:103A00002FC08091E80080FFE9CF2091F3008091E2
:103A1000F20090E0922B6115710559F08830910504
:103A200040F424912093F100319661507109019680
:103A3000F2CF21E0089709F020E08091E8008E772E
:103A40008093E800CBCF2111CCCF0AC08091A60291
:103A5000882361F0853061F08091E80083FD0AC021
:103A60008091E80082FFF2CF80E0089582E008951F
:103A700083E0089581E00895982F973068F590933A
:103A8000E900981739F07091EC002091ED00509109
:103A9000F00003C0242F762F50E021FD02C09F5F6D
:103AA000ECCF3091EB003E7F3093EB003091ED0096
:103AB0003D7F3093ED003091EB0031603093EB00AF
:103AC0007093EC002093ED005093F0002091EE00F5
:103AD00027FDE5CF80E008958F708093E90081E0B5
:103AE00008958091A70287FF11C08091E80082FDB0
:103AF00005C08091A6028111F8CF11C08091E80025
:103B00008B770BC08091A602882349F08091E80052
:103B100080FFF8CF8091E8008E778093E8000895C9
:103B20002091E4003091E50095E64091EC00842F6F
:103B3000817040FF23C08091E80080FD1DC080910E
:103B4000A602882399F0853099F08091EB0085FDDD
:103B500011C04091E4005091E5002417350729F386
:103B6000915011F09A01E1CF84E0089582E0089528
:103B700083E0089581E0089580E008954091E80091
:103B800042FFDDCF08950E94321E0E943A1EE0EEF1
:103B9000F0E0808181608083E8EDF0E080818F77C4
:103BA000808319BCA7EDB0E08C918E7F8C938081CF
:103BB0008F7E80831092A50208950F931F93CF9359
:103BC000DF930E94321E0E943A1EC8EDD0E0888129
:103BD0008F77888388818068888388818F7D8883B8
:103BE00019BC1092A6021092A2021092A402109286
:103BF000A30200EE10E0F80180818B7F8083888132
:103C00008160888342E060E080E00E943C1DE1EE3C
:103C1000F0E080818E7F8083E2EEF0E08081816041
:103C20008083808188608083F80180818E7F80839B
:103C3000888180618883DF91CF911F910F910895D2
:103C4000E8EDF0E080818F7E8083E7EDF0E0808119
:103C50008160808384E082BF81E08093A5020E941E
:103C6000DD1D0895E8EDF0E080818E7F8083109265
:103C7000E20008951092DA001092E10008951F9278
:103C80000F920FB60F9211242F933F934F935F9390
:103C90006F937F938F939F93AF93BF93EF93FF9314
:103CA0008091E10082FF0BC08091E20082FF07C09B
:103CB0008091E1008B7F8093E1000E94AA20809197
:103CC000DA0080FF1FC08091D80080FF1BC0809168
:103CD000DA008E7F8093DA008091D90080FF0DC0DA
:103CE00080E189BD82E189BD09B400FEFDCF81E09C
:103CF0008093A6020E947E1A05C019BC1092A602EB
:103D00000E948C1A8091E10080FF19C08091E2002E
:103D100080FF15C08091E2008E7F8093E200809149
:103D2000E20080618093E2008091D80080628093FD
:103D3000D80019BC85E08093A6020E94921A809157
:103D4000E10084FF30C08091E20084FF2CC080E15C
:103D500089BD82E189BD09B400FEFDCF8091D80004
:103D60008F7D8093D8008091E1008F7E8093E10069
:103D70008091E2008F7E8093E2008091E20081607A
:103D80008093E2008091A202882311F084E007C0B2
:103D90008091E30087FD02C081E001C083E0809351
:103DA000A6020E949B1A8091E10083FF29C08091A6
:103DB000E20083FF25C08091E100877F8093E100CE
:103DC00082E08093A6021092A2028091E1008E7F91
:103DD0008093E1008091E2008E7F8093E2008091E9
:103DE000E20080618093E20042E060E080E00E94B7
:103DF0003C1D8091F00088608093F0000E948F1A33
:103E0000FF91EF91BF91AF919F918F917F916F91B2
:103E10005F914F913F912F910F900FBE0F901F9088
:103E200018951F920F920FB60F9211242F933F9364
:103E30004F935F936F937F938F939F93AF93BF93B2
:103E4000CF93DF93EF93FF93C091E900CF70809100
:103E5000EC00D82FD17080FDD0E81092E90080915D
:103E6000F000877F8093F00078940E94551F109295
:103E7000E9008091F00088608093F000CD2BCF7036
:103E8000C093E900FF91EF91DF91CF91BF91AF9186
:103E90009F918F917F916F915F914F913F912F9162
:103EA0000F900FBE0F901F901895AAE2B0E0EBE5BF
:103EB000FFE10C94E620E7EAF2E08091F1008193C3
:103EC00022E0EF3AF207C9F70E94BB1A8091E8009E
:103ED00083FF2EC18091A7029091A802492F50E044
:103EE0004A30510508F024C1FA01E557FF4F0C9400
:103EF000D120803821F0823809F01AC108C08091A1
:103F0000A3029091A402992389F082600FC080914E
:103F1000AB028F70873008F00BC18093E90080916D
:103F2000EB0085FB882780F91092E9009091E8006A
:103F3000977F9093E8008093F1001092F100D1C038
:103F4000282F2D7F09F0F4C0882319F0823061F00A
:103F5000EFC08091A902813009F0EAC0933009F0E6
:103F600080E08093A4022EC08091A90281112AC012
:103F70008091AB028F702FEF280F263008F0D8C049
:103F80008093E9002091EB0020FF1CC0933021F4C6
:103F90008091EB00806214C09091EB00906190934F
:103FA000EB0021E030E0A90102C0440F551F8A95C3
:103FB000E2F74093EA001092EA008091EB008860FB
:103FC0008093EB001092E9008091E800877F809356
:103FD000E8000E94711DACC08111AAC01091A90215
:103FE0001F778091E3008078812B8093E30080919C
:103FF000E800877F8093E8000E94711D8091E800AF
:1040000080FFFCCF8091E30080688093E300111172
:1040100002C082E001C083E08093A60289C080587C
:10402000823008F085C08091A9029091AA028C3D4F
:1040300053E0950779F583E08A838AE289834FB755
:10404000F894DE01139620E03EE051E2E32FF0E029
:1040500050935700E49120FF03C0E295EF703F5F5B
:10406000EF708E2F90E0EA3010F0C79601C0C09636
:104070008D939D932F5F243149F74FBF8091E800C6
:10408000877F8093E8006AE270E0CE0101960E948B
:104090007D1C16C06091AB027091AC02AE014F5F07
:1040A0005F4F0E94C11BBC01892B09F441C0909154
:1040B000E800977F9093E80089819A810E94DB1C39
:1040C0008091E8008B778093E80032C0803881F5DA
:1040D0008091E800877F8093E8008091A20280931E
:1040E000F1008091E8008E7772CF811121C080911C
:1040F000A9029091AA0299270297D4F48091E8002E
:10410000877F8093E8008091A9028093A2020E9499
:10411000711D8091A202811106C08091E30087FD8C
:1041200002C081E001C084E08093A6020E94A61A2A
:104130008091E80083FF0AC08091E800877F809328
:10414000E8008091EB0080628093EB00AA96E3E0A8
:104150000C9402210895CF938091A6028823A1F0A8
:10416000C091E900CF709091EC00892F817090FD93
:1041700080E8C82B1092E9008091E80083FD0E943E
:10418000551FCF70C093E900CF9108950E94C31DC1
:104190001092A60208958091E300881F8827881F47
:1041A0000895EE0FFF1F0590F491E02D09942F92D2
:1041B0003F924F925F926F927F928F929F92AF92B7
:1041C000BF92CF92DF92EF92FF920F931F93CF9304
:1041D000DF93CDB7DEB7CA1BDB0B0FB6F894DEBF9B
:1041E0000FBECDBF09942A88398848885F846E84C1
:1041F0007D848C849B84AA84B984C884DF80EE800B
:10420000FD800C811B81AA81B981CE0FD11D0FB613
:10421000F894DEBF0FBECDBFED010895FB01DC01B8
:1042200004C08D910190801921F441505040C8F78D
:10423000881B990B0895FB01DC0102C001900D92CF
:1042400041505040D8F70895F999FECF92BD81BDF5
:10425000F89A992780B50895A8E1B0E042E050E0CF
:104260000C946821DC01A40FB51F4150504048F068
:10427000CB01840F951F2E910E9443214150504045
:10428000D0F70895262FF999FECF92BD81BDF89AF7
:10429000019700B4021639F01FBA20BD0FB6F8948A
:1042A000FA9AF99A0FBE08950396272F0E94432188
:1042B0000E944221252F0E944321242F0C94432148
:1042C0000196272F0E9443210C944221DC01CB014F
:1042D000FC01F999FECF06C0F2BDE1BDF89A319616
:1042E00000B40D9241505040B8F70895F894FFCFB4
:1042F0002202010000000100000000000000040193
:104300000000000405000000000000040900000097
:10431000000000030D0000000000003B1A6A1A3E76
:104320001A631A01E200E900EA00B500B600B7001E
:10433000CD008301CC008A01920194012102230265
:1043400024022502260227022A02B300B4006F00CD
:1043500070009F01CB019F02A002818283E200E9ED
:1043600000EA00B500B600B700CD008301CC008A9A
:104370000192019401210223022402250226022730
:10438000022A02B300B4006F0070009F01CB019FAE
:1043900002A002818283F4F5F6F73133946697C662
:0243A0004702D2
:00000001FF
