:100000000C9418020C9454190C9435020C9435027B
:100010000C9435020C9435020C9435020C94350284
:100020000C9435020C9435020C941F210C94F12190
:100030000C941E1C0C9435020C9435020C94350261
:100040000C9435020C9435020C9435020C94350254
:100050000C9435020C94C31C0C9435020C9435029C
:100060000C9435020C9435020C9435020C94350234
:100070000C9435020C9435020C9435020C94350224
:100080000C9435020C9435020C9435020C94350214
:100090000C9435020C9435020C9435020C94350204
:1000A0000C9435020C9435020C943502B304B3045D
:1000B000DF04DF0440055E054D064D066305D905E6
:1000C000EA05EA054A17BC1752171C1720175617DE
:1000D0002317591764172E17B217321768173617D8
:1000E0006C1796173A177017A017401776178017D6
:1000F00027175D172A17601745177B178C17AC1742
:10010000AE1718174E17C5179018961884188A1826
:100110009C18A218A81859228022782380227823BC
:10012000CC22EF227823462355232B0014001A00FB
:100130000800150017002900040016000700090038
:100140000A00E1001D001B00060019000500000068
:1001500000000000E00065002A412A0013001200A0
:100160000C0018001C00340033000F000E000D00BE
:100170000B00283238003700360010001100000054
:1001800000000000E60023522C4200001E001F0069
:1001900020002100220000000000000000000000FC
:1001A000000000000000000000000000000000004F
:1001B000000000000000000000002A0027002600C8
:1001C000250024002300670057005E005D005C00EE
:1001D0005500000056005B005A0059005400000012
:1001E0000000000062006300000035001E021F02D4
:1001F00020022102220235023400360226022F029A
:100200002F00380034020000000000000000000051
:10021000000000000000000000002A002702260263
:100220002502240223023102330237022702300260
:100230003000310033002E022E002D022D00000070
:100240000000000000000000000000003A003B0039
:100250003C003D00A70000003E003F004000410080
:100260000000A5004200430044004500A600000035
:10027000000000000000000000004C004A00AB003D
:10028000A9004B00AC00AD00AE004F005200510081
:10029000500046004D00A800AA004E0005000000D6
:1002A0000000000000000000000030036800610052
:1002B0006E006400770069007200650064002F0022
:1002C00063006F0072006E0065005F006C006100EB
:1002D000720072005F007600310000000A036C00BB
:1002E00061007200720000000403090409023B006F
:1002F000020100A0FA090400000103010100092124
:1003000011010001224000070581030800010904D2
:100310000100010300000009211101000122B600C3
:10032000070582032000011201000200000008ED11
:10033000FE000000010102000105010902A1018582
:10034000020901A1000509190129081500250195D7
:1003500008750181020501093009311581257F9554
:10036000027508810609381581257F950175088178
:1003700006050C0A38021581257F9501750881064E
:10038000C0C005010980A101850319012AB7001524
:100390000126B700950175108100C0050C0901A167
:1003A00001850419012AA002150126A002950175F4
:1003B000108100C005010906A1018506050719E0A5
:1003C00029E7150025019508750181020507190027
:1003D00029EF1500250195F0750181020508190125
:1003E0002905950575019102950175039101C005D7
:1003F000010906A101050719E029E7150025019566
:100400000875018102950175088101050719002908
:10041000FF150026FF0095067508810005081901E3
:100420002905950575019102950175039101C0009B
:1004300011241FBECFEFDAE0DEBFCDBF11E0A0E098
:10044000B1E0E0E0F9E402C005900D92AA3AB107EC
:10045000D9F722E0AAEAB1E001C01D92AD3EB20791
:10046000E1F70E9444140C947E240C940000843024
:10047000B0F46830A0F4463090F490E3899FF00126
:10048000112486E0689FE00DF11D1124E40FF11D99
:10049000EE0FFF1FE65DFE4F85919491089581E078
:1004A00090E008950E943702089581E0089581E068
:1004B00008950E94570208950E94590208950E94CB
:1004C0005702089508950E9462020895A6E0B0E0E0
:1004D000ECE6F2E00C94DA2349835A839E83309150
:1004E000B10189819A81311115C03E81332359F0C0
:1004F000222349F00E940F08182F682F89819A81C2
:100500000E94EB0703C00E94FD07182F69817A81C2
:10051000812F04C00E940F0869817A810E94050F13
:100520002696E3E00C94F623FC01262F40815181AE
:1005300062817381848195810E9466020895CF93C0
:10054000DF93EC0161E00E949402BE010E945C0214
:10055000DF91CF910895CF93DF93EC0160E00E948B
:100560009402BE010E946302DF91CF910895089525
:100570000E94C2060E94B7022FEF84E39CE0215044
:1005800080409040E1F700C0000008950E94B8024A
:100590000E94E91C08950E94B8020E94FA1C089566
:1005A0000F931F93CF93DF938C0161E00E9494021D
:1005B000EC01B8010E945F02882309F442C0B8012F
:1005C000CE010E9478188823E1F1B801CE010E9483
:1005D000F4168823B1F1B801CE010E94DE178823FA
:1005E00081F1F8018581882341F1C3308CE7D80778
:1005F000D1F040F4C115FCE7DF0791F0C130DC47D2
:10060000A1F01BC0CB35ECE7DE07A9F0CC35FCE749
:10061000DF0771F0CA35DC4781F40E944B0C0DC036
:100620000E94C6020EC00E94530C0E94CB0209C059
:100630000E94410C02C00E944F0CC8010E9455024A
:1006400001C080E0DF91CF911F910F9108950E942A
:10065000F71B0E944E0308950E9452030E94001C43
:100660000895089581E008950895CF93DF93D82FDA
:100670000E943203C82F882319F08D2F0E94340363
:100680008C2FDF91CF9108950895CF93C82F0E94AA
:1006900031038C2F0E943503CF91089580E00E9492
:1006A000450308950E947F1A0E9445030895CF9341
:1006B0000E947F1AC82F8091AC01C81779F0C093AF
:1006C000AC010E948C1C6093AD017093AE018093CD
:1006D000AF019093B0018C2F0E944503CF910895F4
:1006E000ADE0B0E0E6E7F3E00C94DB234887598700
:1006F0006A877B878C879D8791110E94750BCE013D
:10070000019627E0FC0111922A95E9F726E0FE0107
:100710003896DC0101900D922A95E1F72D81211187
:100720000AC029813A814B815C816D817E818F81F4
:100730000E94BF0A04C00E949F028111F2CF2D9631
:10074000E2E00C94F723FC012481213021F4808124
:1007500091810E9441080895662319F00E94C914EE
:1007600002C00E9424150E949B150895CF938823F0
:1007700009F450C0C82F8CEF8C0F813AD0F46C2F45
:1007800080910001909101010E941B1B882349F078
:100790006C2F80910001909101010E94A91B0E9481
:1007A000A10B6C2F80910001909101010E949B1B75
:1007B0000CC080E28C0F883058F4C77081E001C013
:1007C000880FCA95EAF70E94580B0E94A10B22C01D
:1007D000EBE5EC0FE33040F4F0E0EE59FE4F8081A2
:1007E00090E00E94BB1A16C0E8E5EC0FEB3150F424
:1007F000F0E0EE0FFF1FE45DFE4F808191810E94CB
:10080000E01A08C083E38C0F833120F461E08C2F61
:100810000E94AC03CF9108958823A9F19CEF980F13
:10082000913A40F4682F80910001909101010E945B
:10083000A91B0DC090E2980F983060F4877091E08A
:1008400001C0990F8A95EAF7892F0E945E0B0E94DA
:10085000A10B08959BE5980F933028F480E090E079
:100860000E94BB1A089598E5980F9B3128F480E008
:1008700090E00E94E01A089593E3980F933118F4E2
:1008800060E00E94AC0308951F93CF93DF93182F6D
:10089000EB010E94B603209741F08FE99FE001979A
:1008A000F1F700C000002197F6CF812F0E940C04C1
:1008B000DF91CF911F910895893319F060E070E0C6
:1008C00002C060E570E00E9444040895882321F08E
:1008D0000E94580B0E94A10B0895882321F00E94CA
:1008E0005E0B0E94A10B0895A0E0B0E0EAE7F4E0FF
:1008F0000C94D5237C01162FC72FFC01D5810681CE
:1009000002950F700E944E0B8823E9F0DD23D9F089
:100910008C2F807F803451F080E2810F883098F0F6
:10092000011104C08C2F807E803269F08091C90251
:1009300082FF09C082E00E94150C0E944E0B91E0DC
:10094000D82ED92601C0D12CCC2EC2948FE0C8223B
:100950008C2D90E08C30910508F09FC1FC01EA5A83
:10096000FF4F0C94C5238C2F807FCF70882311F00C
:10097000C295C07FDD2399F0CC2309F47AC180E2CF
:10098000810F883010F0111104C08C2F0E94580B79
:1009900003C08C2F0E94680B0E94A10B6AC1812F9B
:1009A0000E940C04CC2309F478C180E2810F8830C6
:1009B00038F1112329F18C2F0E946E0B24C08C2F4B
:1009C000807FCF70803211F0C295C07F112319F063
:1009D000113099F13CC08091C90282FD17C0DD231E
:1009E00049F0CC2329F08C2F0E94580B0E94A10BB8
:1009F00080E040C180E00E940C04CC2309F44DC18A
:100A00008C2F0E945E0B0E94A10B47C1DD2349F091
:100A1000002309F1013009F040C18C2F0E947F0BA7
:100A20003CC101113AC18C2F0E946D048C2F0E9491
:100A30008B0B8C2F0E94E80B30C1DD2321F0063098
:100A400008F02BC108C0053008F027C115C0DD2310
:100A500031F001110EC18C2F0E9466041EC10023CB
:100A600059F0193309F016C1FFEF27EE83E0F1507A
:100A700020408040E1F70CC18C2F0E946D040DC115
:100A80008C2F86958695837019F0813061F005C1B1
:100A9000DD2321F0812F9C2F937002C080E090E035
:100AA0000E94BB1A02C1DD2321F0812F9C2F93707D
:100AB00002C080E090E00E94E01AF7C06D2F812F05
:100AC0000E94AC03F2C08C2F8370B1F5D111E9C044
:100AD000412F429546954770440F440F812F8F70E8
:100AE00090E09C01042E02C0220F331F0A94E2F70B
:100AF00014FF0AC08FE090E002C0880F991F4A954A
:100B0000E2F78095909502C080E090E0C695C6958A
:100B1000C370822B932BC23049F058F4C13019F0C6
:100B20000E941E07BEC00E941507BBC00E94270777
:100B3000B8C00E941207B5C0DD2319F08C2F817058
:100B400001C08695882309F4ACC0412F4295469593
:100B50004770440F440F812F8F7090E09C01042E4A
:100B600002C0220F331F0A94E2F714FF0AC08FE07D
:100B700090E002C0880F991F4A95E2F78095909502
:100B800002C080E090E0C695C695C370822B932B7F
:100B9000C23049F058F4C13019F00E94860781C074
:100BA0000E947D077EC00E948F077BC00E94330792
:100BB00078C0CF70DD2339F08C2F0E944B07812F36
:100BC0000E9466046EC0812F0E946D048C2F0E94CB
:100BD0005B0767C0123F21F128F4103F41F0113F3D
:100BE000C1F043C0133F19F1143F79F03EC0DD233B
:100BF00041F0053008F051C08C2F8F710E946D07B5
:100C00004CC0063008F049C0F7CF8091C90282FD80
:100C100018C0DD2339F08C2F8F710E944B073DC027
:100C2000DD23C9F38C2F8F710E945B0736C0DD2353
:100C300029F08C2F8F710E943F072FC00E943A0726
:100C40002CC0DD2349F0CF718C2F0E944B0763E04D
:100C50008C2F0E94F70B21C081E00E94150C0230FE
:100C6000E0F082E00E94150C18C0DD2331F0002373
:100C700091F2812F0E94B60310C0002399F219331C
:100C800049F49FEFE7EEF3E09150E040F040E1F7E8
:100C900000C00000812F0E940C0488EF8C0D84306E
:100CA00020F40E947F1A0E944503DD2089F00E94F3
:100CB0004A0B80FD0DC0F70115820E94440B0E9473
:100CC0004B07C7010E9485060E94440B0E945B07E8
:100CD000CDB7DEB7E8E00C94F1230F931F93CF93C9
:100CE000DF93EC01688179818D810E944C088C0131
:100CF0000E9498070E940307B801CE010E94740465
:100D0000DF91CF911F910F910895CF93DF93FC0155
:100D100024812223D1F0EC010E94D00281110FC066
:100D20000E944E0B882389F08D81882371F0809179
:100D3000C90282FF0AC082E00E94150C06C0CE01E3
:100D40000E946D06CE010E94AB02DF91CF91089503
:100D500080E090E00E94BB1A80E090E00E94E01AE0
:100D60000E94750B0E94A10B0E94BA150E949B1550
:100D7000089580910001909101010E94B71B0E948B
:100D8000A80608950E94650B0E94B90608959295E1
:100D90009F70963079F010F4925001C09A509230C2
:100DA00068F4803F69F018F4883E40F409C0843F3D
:100DB00029F406C0883E20F0813F11F080E00895BC
:100DC00081E00895FC012481222339F08081918102
:100DD0000E9441080E94C706089580E00895A6E099
:100DE000B0E0E5EFF6E00C94DB232696E2E00C940D
:100DF000F723A7E0B0E0EFEFF6E00C94DB232796B3
:100E0000E2E00C94F723089508950E9404070895E2
:100E10000E94050708950E9408079093CD018093D2
:100E2000CC0108950E940B0708952091CC013091C8
:100E3000CD01822B932B0E940B0708952091CC01AA
:100E40003091CD01822393230E940B0708952091B6
:100E5000CC013091CD01822793270E940B07089582
:100E60000E94040708950E9430079093CB0180935D
:100E7000CA01089580E090E00E943307089521E0C0
:100E800030E0A90102C0440F551F8A95E2F7CA015C
:100E90000E943307089521E030E002C0220F331F83
:100EA0008A95E2F78091CA019091CB01822B932B16
:100EB0000E943307089521E030E002C0220F331F63
:100EC0008A95E2F7209530958091CA019091CB01E7
:100ED000822393230E943307089521E030E002C06B
:100EE000220F331F8A95E2F78091CA019091CB01BE
:100EF000822793270E94330708952091CA013091D9
:100F0000CB01822B932B0E94330708952091CA01B5
:100F10003091CB01822393230E94330708952091BF
:100F2000CA013091CB01822793270E94330708958D
:100F30000895962F9770A1E001C0AA0F9A95EAF73D
:100F400093E0769567959A95E1F7660F771F660FA0
:100F5000771FFA01E60FF71F40E050E0682F70E0BE
:100F600090819B01042E02C0369527950A94E2F7E2
:100F70002170219529272A23292721934F5F5F4F2D
:100F80004430510569F70895FB01782F777023E00D
:100F9000969587952A95E1F7880F991F880F991FD5
:100FA000E80FF91F40E050E080E0219130E0072E8B
:100FB00002C0369527950A94E2F721703327042E54
:100FC00001C0220F0A94EAF7822B4F5F5F4F443033
:100FD000510559F70895282F983070F4863060F441
:100FE000862F622F70E026E0929F600D711D112404
:100FF00042EB51E00E9499070895983070F48630D2
:1010000060F4292F90E062EB71E036E0239F800DC1
:10101000911D11240E94C407089580E00895A0E066
:10102000B0E0E5E1F8E00C94D4237C010091CA0122
:101030001091CB018091CC019091CD01082B192BFF
:10104000CFE0D0E0CC24C394D12CC6010C2E02C03A
:10105000880F991F0A94E2F780239123892B21F4AA
:10106000219798F7B12C07C0BC2EB7018C2F0E9496
:10107000110F0197A9F38B2DCDB7DEB7E9E00C94E2
:10108000F023CF93DF93EC010E940F08BE010E9472
:10109000110FDF91CF9108951F93CF93DF93EB0151
:1010A0009091B101992321F0CB010E94410813C016
:1010B000882349F0CB010E940F08182F682FCE011A
:1010C0000E94EB0704C0CB010E94FD07182FBE0150
:1010D000812F0E94110FDF91CF911F9108951F93CF
:1010E000CF93DF93C091CE0117E08091CF01C81755
:1010F000A1F0D0E01C9FF0011D9FF00D1124E053E2
:10110000FE4F2081318142815381648175818681C6
:101110000E94F9062196C770E8CFDF91CF911F9109
:101120000895209108023091090240910A025091DD
:101130000B0260910C0270910D0280910E020E94D0
:10114000F9060895CF93DF9380910E0282958F70F8
:1011500009F04EC080910D02882309F449C08091A6
:10116000CE014091CF015091090260910802C091D7
:101170000A02D0910B0277E08417D1F190E0789FBA
:10118000F001799FF00D1124DF01A053BE4F14969A
:101190002C911497222349F111962C911197251324
:1011A00024C02C91261321C015962C91159721113E
:1011B0001CC012962D913C9113972C1B3D0B283C83
:1011C000310598F480910E028F70806180930E0239
:1011D000EA52FE4F80818F708061808388E092E0C8
:1011E0000E9485060E946F0803C001968770C4CFD5
:1011F000DF91CF9108952091CE019091CF0157E0DA
:101200002917A9F030E0529FF001539FF00D1124EF
:10121000E053FE4F7181761306C07081781303C0CE
:101220007581741306C02F5F3F4F2770E9CF80E0B0
:10123000089581E00895A4E1B0E0E1E2F9E00C94C2
:10124000D1238C0186E0F801DE011F9601900D92FA
:101250008A95E1F7F8018481E58098E0A92E92E073
:10126000B92E90910C02911118C0882309F480C105
:10127000EE20D9F1C8010E94E206F82E8823A9F1D8
:1012800087E0F801D50101900D928A95E1F7C5013B
:101290000E94A3030E94A20898C0F801C080D180D8
:1012A00082809380F0900D0220910A0230910B020F
:1012B000A401421B530BFF2009F406C1483C510511
:1012C00008F0AFC0882309F455C180910E02282F81
:1012D000207F90910902222361F09D1509F462C0DC
:1012E000C8010E94E206811173C0C8010E948506F0
:1012F0003FC19D1115C0909108029C1111C0E110D1
:101300000FC08F70806180930E020E94910888E068
:1013100092E00E94850680910E02F801868326C124
:10132000E1103AC040E06D2D8C2D0E94FB0840E09A
:101330006D2D8C2D0E94FB08E82E811117C1CF86E0
:10134000D88A8F8598890E944108292F22952F706D
:10135000243020F49F70223028F009C02A50223017
:1013600080F014C0992349F0811107C013C099235C
:1013700021F0F8019681907F69F0805E883030F42A
:1013800009C0803F38F0815F833020F0C8010E949F
:101390008506EF2CFE2CEEC080910E0281608093BA
:1013A0000E02E4C0909108029C119ACFE11098CFF0
:1013B000F8018683C8010E94850687E0F801A8E04D
:1013C000B2E001900D928A95E1F70E949108D2C097
:1013D000EE2009F48ACF20910E02822F82958F7021
:1013E00090E002978CF08091080290910902998711
:1013F00088879B868A8680910C028C871D862E8723
:10140000CE0108960E94850687E0F801A8E0B2E0C8
:1014100001900D928A95E1F70E94A2080E9491081E
:10142000A7C090910E02292F207FA1F4682D9A8ADF
:10143000898AA6017A899E2D0E94EF0688E092E0B3
:101440000E94850687E0F50111928A95E9F70E94CE
:1014500091088CC0882309F48DC0809109028D11F8
:1014600011C0809108028C110DC0E1100BC0F80171
:101470009683C8010E94850687E0F50111928A953E
:10148000E9F778C0C8010E94E206882309F42DCF4D
:10149000EE2009F42ACF20910E02822F82958F70C0
:1014A00090E002970CF4B0CF80910802909109026D
:1014B0009A8389839C828B8280910C028D831E8209
:1014C0002F83CE0101969ECF483C510508F040C0C5
:1014D000882309F44DC0FE2CEE2009F406CF80913C
:1014E00009028D1127C0809108028C1123C09091B0
:1014F0000E0290FD16C0892F82958F70282F30E044
:101500002115310571F0F80196832F30310509F46A
:1015100051CF8F5F982F9295907F86818F70892B06
:1015200048CF87E0F801A8E0B2E001900D928A95DB
:10153000E1F720C0C8010E94E206811165CF8091C9
:101540000E02816080930E02C8010E94850612C0BF
:10155000682D9A8A898AA6017A899E2D0E94EF06B3
:1015600087E0F50111928A95E9F72FCFF12C02C09F
:10157000FF24F3948F2D6496ECE00C94ED23AEE001
:10158000B0E0E5ECFAE00C94DA23288739874A8743
:101590005B876C877D878E87CE0108960E941B092A
:1015A000882361F06C856623A9F1288539854A85F1
:1015B0005B857D858E850E94F9062CC087E0FE0143
:1015C0003896DE01119601900D928A95E1F76C85AF
:1015D000662301F12091CF0130E0C90101968770A7
:1015E00099274091CE0150E084179507E1F16D8372
:1015F00097E0929FD001939FB00D1124A053BE4F4E
:10160000FE01319601900D929A95E1F78093CF01FA
:101610000E946F0817E08091CE019091CF01891749
:1016200079F1189FC001112480539E4F0E941B091D
:10163000882331F1E091CE011E9FF0011124E05387
:10164000FE4F208131814281538164817581868181
:101650000E94F9068091CE0190E00196877099274B
:101660008093CE01D8CF0E94C2061092CF01109273
:10167000CE01E8E0F2E087E0DF011D928A95E9F70C
:101680002E96E3E00C94F62380912F0286958695A2
:101690008695089580912F028770089590912F026A
:1016A000977081E009F480E00895809153020895D5
:1016B00090915302892B80935302089580959091C5
:1016C0005302892380935302089510925302089580
:1016D00090915202892B80935202089580959091A7
:1016E0005202892380935202089510925202089563
:1016F00008950E94780B08950E94790B08959091A7
:101700003102292F2823821729F0982B9093310238
:101710000E947C0B089590913102292F282331F0EB
:1017200080958923809331020E947C0B08958091DB
:101730003102882329F01092310280E00E947C0B54
:101740000895CF93DF93E0910001F0910101809122
:1017500053028083E0910001F0910101908180911A
:101760005202892B808380913102882381F0E0919D
:101770000001F09101019081892B8083809100010B
:10178000909101010E94051B81110E94970BC0914D
:101790000001D091010140E250E06FE072E0CE0123
:1017A0000E941624892B59F080E2FE01AFE0B2E0DE
:1017B00001900D928A95E1F7CE010E94931ADF9174
:1017C000CF9108950E94780B08950E94E20B08952E
:1017D00090913002292F282331F08095892380931E
:1017E00030020E94E50B08950E94780B08959091B5
:1017F000C90292FF11C098E0899F90011124262B05
:1018000020932F020E944B0780912F028695869588
:1018100086950E94F40B08950E944B07089510923C
:101820002F0280E00E94F40B089590912F02809582
:10183000892380932F02282F277069F4981759F075
:101840009091C90292FF07C08695869586950E9461
:101850005B070E940F0C08959091C90292FB22270A
:1018600020F9281769F080FB92F99093C9028091C2
:10187000C8029091C9020E94740C82E00E94150C6B
:1018800008958091C90282FB882780F991E0892719
:101890000E942C0C089581E00E942C0C089580E099
:1018A0000E942C0C08956FEF7FEF80E090E00E9483
:1018B0006824089580E090E00E94342421E0863E70
:1018C0009E4F09F020E0822F089582E090E00E9470
:1018D0002C24089583E090E00E942C24089584E055
:1018E00090E00E9434240895BC0184E090E00E94BE
:1018F00068240895AB01BC018FE090E00E945C2455
:101900000895AB01BC0183E190E00E945C2408953E
:1019100060E070E0CB010E94810C089560E070E00F
:10192000CB010E947A0C0E94880C0895A8E0B0E0D8
:10193000ECE9FCE00C94DB2366EE7EEF80E090E0C7
:101940000E94682460E082E090E00E944A2460E007
:1019500083E090E00E944A241092CD011092CC01C5
:1019600060E074E184E090E00E94682460E086E03A
:1019700090E00E944A246FEF87E090E00E944A24A2
:1019800040E050E0BA0188E090E00E945C2460E012
:1019900084E290E00E944A2460E087E190E00E94A7
:1019A0004A2460E08CE090E00E944A2460E08DE0F0
:1019B00090E00E944A2419821A821B821C821D8296
:1019C0001E821F82188648E050E068E170E0CE0178
:1019D00001960E943A2440E050E0BA0180E290E093
:1019E0000E945C240E948E0C2896E2E00C94F7235F
:1019F0000E94960C08958EE090E00E942C2491E0C5
:101A0000811101C090E0892F0895682F8EE090E049
:101A10000E944A240895A6E0B0E0E1E1FDE00C94C4
:101A2000D9230E94801C8C01809154029091550210
:101A30000817190781F019821A820E94801C682FEA
:101A400049815A81792F80E090E00E9470031093C1
:101A50005502009354022696E4E00C94F5230E946C
:101A60001B106093620270936302809364029093F0
:101A7000650260935E0270935F02809360029093B0
:101A80006102089581E008950E9422120895089548
:101A90000E94470D08950E94470D08950E944B0D26
:101AA00008950E94470D08950E94510D08950E94C7
:101AB000470D089585E390E10E94751A0E94570D25
:101AC0000E94540D08950E94480D0E94470D0895EC
:101AD0000E9454100E94440308950E94771C0E94A3
:101AE000F50F0E9448120E9482110E94680D0E9408
:101AF000DC160E9458120E944E0D0895A6E0B0E038
:101B0000E4E8FDE00C94D2230E94420D811103C051
:101B10000E940B0D53C00E94A71186E5E82E82E0BB
:101B2000F82E670100E0F60111916F01802F0E94ED
:101B3000721081270F5F083019F08823A1F302C0CB
:101B4000882331F38091660281FD0E9478100E9403
:101B5000440DA82E10E099249394812F0E947210B6
:101B6000B82EF701C080C82609F100E0DD24D39427
:101B70008C2D8D21A9F0AA2099F009831A830E9447
:101B8000801C9C838B839D8291E08B2D8D2109F499
:101B900090E049815A816B817C818D810E94700324
:101BA0000F5FDD0C063021F7F701B0821F5FFFEFFA
:101BB000EF1AFF0A183089F60E942F0D0E94221298
:101BC0000E94DC150E9457032696EBE00C94EE234E
:101BD0001F93CF93DF930E94160FEC01C11580E590
:101BE000D807E8F5C11590E4D90708F0A8C0C03EB1
:101BF000D10530F5CD3CD10508F094C0C83AD105E7
:101C000078F4C53AD10508F083C0C130D10509F494
:101C10007CC008F4F2C0C430D10508F0F1C0EDC0BA
:101C2000C33CD10508F0E9C0C85AD0E0CC0FDD1F95
:101C3000CB59DE4F0990D881C02DCE019464E1C00C
:101C4000C11580E2D80708F0CBC0C11591E0D907D3
:101C500008F06BC0C83ED10508F4D2C0CEC0C03673
:101C600082E5D80728F5C03492E5D90708F079C095
:101C7000C03282E5D80708F06CC0C11592E5D907DB
:101C800008F481C04C2F4695469580E2489FA001FC
:101C90001124C37021E030E0C90102C0880F991FF0
:101CA000CA95E2F7EA01C82BD92BCE019D68A9C0DD
:101CB000C03A82E5D807B8F48C2F8F71C03892E50E
:101CC000D90708F07BC08695869590E2899F9001A0
:101CD0001124C37081E090E002C0880F991FCA955B
:101CE000E2F79A6868C0C03C82E5D80708F46DC086
:101CF000C03E92E5D90708F080C0CF71DD27DC2F08
:101D0000CC27CE01806F906A7CC081E090E079C0E2
:101D1000C55AD0E0C556DE4F8881C82FD0E0CE012D
:101D200090646FC0CE0190656CC08D2F0E94B20F81
:101D3000182FCE0199270E94160F1F715CC0CE018B
:101D400099270E94160FCC27DF70D06A8C2B9D2B11
:101D500058C0CF71D0E0DC2FCC27CE01816F906AC4
:101D600050C08C2F8F718695869590E2899F900147
:101D70001124C37081E090E002C0880F991FCA95BA
:101D8000E2F79C6818C08C2F8F710E94B20F95E00B
:101D9000D695C7959A95E1F7CF70D0E0DC2FCC2788
:101DA000282F30E084FF05C084E0220F331F8A957E
:101DB000E1F7D069CE01822B932B23C090E0D82F7E
:101DC000CC27CE01846F906A1CC08C2F8F710E942B
:101DD000B20F8F7190E0D82FCC27CE01906211C046
:101DE0008D2F8F710E94B20F182FCE0199270E945C
:101DF000160F1F719062912B04C080E090E001C02B
:101E0000CE01DF91CF911F910895783038F466307C
:101E100028F4462F672F0E945202089580E090E038
:101E200008950E94050F0E94E80D089582389105DB
:101E300069F1B0F48133910509F475C048F4893231
:101E4000910509F467C08A32910509F471C00895BB
:101E50008533910509F459C089339105B9F0089586
:101E6000833E910589F138F4803E9105D1F0823EA0
:101E7000910529F10895863E9105C9F1873E9105A6
:101E8000D9F1843E910509F06CC027C02091C802A9
:101E900020FD57C021FD55C02091C90223FD5BC024
:101EA00008958091C80280FD48C08091C90280FFDA
:101EB00048C08091C80284FD46C083EE51C0809125
:101EC000C80282FF3CC0F5CF8091C80282FD37C0B6
:101ED0008091C90280FD35C0ECCF8091C90281FF9D
:101EE00036C08091C80284FD2EC087EE39C0809133
:101EF000C80283FF2AC0F5CF8091C80283FD25C0A8
:101F00008091C90281FD23C0ECCF8091C80285FD7C
:101F100022C01FC08091C80285FD1BC08091C902EC
:101F200083FF19C00AC08091C80286FD16C017C081
:101F30008091C80286FD13C010C089E311C082EEF3
:101F40000FC080EE0DC080E00BC086EE09C084EEAD
:101F500007C085E305C089E203C08AE201C081E3CE
:101F600090E008959091C80292FF0DC0282F28712B
:101F7000283019F4877F846006C0282F247124300C
:101F800011F48B7F886093FF0DC0282F28712831B2
:101F900019F4877E846106C0282F2471243111F43E
:101FA0008B7E88612091C90220FF0DC0382F3871C7
:101FB000383019F4877F816006C0382F3171313095
:101FC00011F48E7F886021FF0DC0282F28712831E1
:101FD00019F4877E816106C0282F2171213111F407
:101FE0008E7E886194FD877E08951092C4021092BF
:101FF000C5021092C6021092C7020895CF92DF92D6
:10200000EF92FF926B017C010E94221281110EC09F
:102010000E948C1CC61AD70AE80AF90AC092C402A8
:10202000D092C502E092C602F092C702FF90EF90F4
:10203000DF90CF9008950F931F930E942212882360
:1020400019F00E948C1C0EC00E948C1C0091C402CE
:102050001091C5022091C6023091C702600F711F16
:10206000821F931F1F910F91089580E008950E9491
:10207000530C08950E94A7112FEF86E791E021509D
:1020800080409040E1F700C000000E94A71180E06E
:102090000E94721080FF04C00E9437100E94E91C49
:1020A00008950E943A1008950E945A0C811102C0AE
:1020B0000E94F80C0E94650C809366020E946F0CCF
:1020C0009093C9028093C8020E9451100E946A0C2A
:1020D00090E00E9412078091CA019091CB010E946A
:1020E00030070895E82FF0E0ED52FD4F808108950C
:1020F000089580EA8A95F1F7089500C008950E9436
:102100007910089508950E94821008950E94831006
:1021100008950E94821008950E94891008950E94D7
:1021200082100895A4E0B0E0E8E9F0E10C94D9232E
:102130000E9422126091DB028823E9F119821A823F
:102140001B821C82862F90E08E010F5F1F4FB8010B
:102150008D529D4F0E946612882389F08091CA0299
:1021600090E044E050E0B8018D529D4F0E9416244B
:1021700021E020936702892B69F410E019C0809157
:1021800067028823D1F384E0F80111928A95E9F778
:1021900010926702E091CA02F0E0ED52FD4F898192
:1021A0009A81AB81BC8180839183A283B38311E048
:1021B0000E9486100DC070E06D527D4F8091CA0262
:1021C00090E08D529D4F0E94EF120E948F1010E000
:1021D000812F2496E4E00C94F523F894E82FE295FF
:1021E000EF70F0E031A1282F2F7081E090E001C066
:1021F000880F2A95EAF7982F9095932391A392A19F
:10220000892B82A3789408950F931F93CF93DF9324
:10221000C4EAD1E089918F3F11F00E94ED1081E076
:10222000C83AD807B9F7CEE9D1E004EA11E08991BC
:102230008F3F11F00E94ED100C171D07C1F7DF91C1
:10224000CF911F910F910895A0E0B0E0EAE2F1E193
:102250000C94D5238C01C62FD0E0CE018C559E4F17
:102260007C01FC0190819F3F09F447C0D62EF89471
:10227000E92FE295EF70F0E081A19F7021E030E05E
:1022800001C0220F9A95EAF7822B81A382A12095A3
:10229000282322A378940E947D10EEE9F1E044EA1D
:1022A00051E031E0C12C21912F3F89F0A22FA2955E
:1022B000AF70B0E090968C9190E02F7002C0959531
:1022C00087952A95E2F780FD02C0832F01C080E048
:1022D000C82A330F4E175F0731F7F70180818F3F10
:1022E00011F00E94ED1061E0C11001C060E08D2D81
:1022F0000E947F10C00FD11FC882CDB7DEB7E8E0C3
:102300000C94F1238091020180910201811102C09D
:1023100094E001C090E09093DB0284E0891B8093FD
:10232000CA020E94041188E0E3EDF2E0DF01982F79
:102330001D929A95E9F7EBECF2E0DF011D928A9588
:10234000E9F784E00E94E5110E948C100895A8E04E
:10235000B0E0EDEAF1E10C94D8238E010F5F1F4F3E
:1023600088E0F80111928A95E9F7F12C6F2DC801E8
:102370000E942411F394F4E0FF12F8CF48E050E0FB
:10238000B8018BEC92E00E94162421E0009709F43A
:1023900020E0892B41F088E0F801ABECB2E001903D
:1023A0000D928A95E1F76091DB0270E06D527D4FEE
:1023B00044E08BEC92E00E94E611182F0E949210EC
:1023C000812B2896E5E00C94F4230895EF92FF9278
:1023D0000F931F93CF93DF937C018B01C42F222394
:1023E00049F081E080936A020E94801C9093690208
:1023F0008093680280916A02811102C080E01AC055
:1024000080916802909169020E94981C0597B0F330
:10241000D0E0AE01B701C8010E941624892B39F023
:10242000AE01B701C8010E94232481E001C080E011
:1024300010926A02CDB7DEB7E6E00C94F3230E9457
:10244000FB0C0895CF93DF9380916D02811117C02B
:10245000C8ECD0E00E94AB2381110AC08FE39CE955
:102460000197F1F700C000002197A1F782E001C0B9
:1024700081E080936D02823011F40E94A62381E0F6
:1024800090916D02913009F080E0DF91CF91089535
:102490000E945A0C811102C00E94F80C0E941F1267
:1024A000809302010E94221281110E949E120895BF
:1024B0000E942212811102C00E94A112089581E09F
:1024C00090916E029A3008F080E008950F931F9368
:1024D000CF93DF93EC018B0180916E028A3038F448
:1024E000B801CE010E94EC1281111DC00AC080917A
:1024F0006B0290916C020E94981C843F914080F77F
:1025000015C080916E028F3F19F08F5F80936E022D
:1025100080916E028A3060F00E94801C90936C0261
:1025200080936B0203C010926E0202C080E001C073
:1025300081E0DF91CF911F910F9108950E940F19B3
:1025400008950E9412190895A0E0B0E0EAEAF2E1CD
:102550000C94D6237901C82F880FDD0B4115510546
:10256000A9F0FE0193E0EE0FFF1F9A95E1F7ED5FF2
:10257000FE4F8181928181599D4F208130E0421729
:10258000530708F49A01A9010E942324CE010E9456
:10259000FA19D82E8823D1F001151105B9F083E07E
:1025A000CC0FDD1F8A95E1F7FE01ED5FFE4F438101
:1025B00050E00417150708F4A801CD5FDE4F6C81C9
:1025C0007D8161597D4FC7010E9423248D2DCDB798
:1025D000DEB7E7E00C94F2230E94E91308950E940D
:1025E00000140895A4E0B0E0E8EFF2E10C94D923E0
:1025F0006091840270918502809186029091870299
:102600000E94A71C643671058105910528F10E947E
:102610001B10DC01CB010296A11DB11D89839A8399
:10262000AB83BC8300E010E020E030E044E050E009
:10263000BE016F5F7F4F82E00E94A412182F882393
:1026400061F00E948C1C60938402709385028093D9
:1026500086029093870201C011E0812F2496E4E066
:102660000C94F523A0E0B0E0E8E3F3E10C94D3236D
:102670007C015B016A010E945F12811103C001E0CD
:1026800010E002C00AE010E0C1E0D0E0B501C701EF
:10269000F6010995811115C021960C171D0794F0BC
:1026A000CC9F9001CD9F300D300D112480E090E043
:1026B00045E34A95F1F70000019682179307C1F7A9
:1026C000E5CF81E0CDB7DEB7EAE00C94EF23A5E0DB
:1026D000B0E0EDE6F3E10C94D3235B01E090A801B8
:1026E000F090A90101E010E09E012B5F3F4F40E018
:1026F00050E060E070E080E00E94A412182F882370
:1027000009F43EC067018FEFC81AD80A60918002B1
:102710007091810280918202909183020E94A71C95
:10272000643671058105910518F104E010E09E0101
:102730002F5F3F4F40E050E060E070E081E00E949A
:10274000A412182F64E070E0C6010E94DD1691E02B
:102750002D81281390E0192351F10E948C1C609365
:10276000800270938102809382029093830211C051
:1027700064E070E0C6010E94DD169D818913D5CF0B
:10278000F70181819281A381B48189839A83AB838C
:10279000BC83112361F089819A81AB81BC818093D4
:1027A0007C0290937D02A0937E02B0937F02809181
:1027B0007C0290917D02A0917E02B0917F02F50192
:1027C00080839183A283B383812F2596EAE00C94C2
:1027D000EF230F931F93CF93DF93EC018B0147E619
:1027E00053E10E943213882331F042EF52E1B801E5
:1027F000CE010E943213DF91CF911F910F91089566
:102800000F931F93CF93DF93C091A801D091A9019B
:10281000CE01019624E0FB01DC0101900D922A9586
:10282000E1F764E070E00E94DD1688836D817E81AF
:102830008F819885009178021091790220917A0217
:1028400030917B02601771078207930751F0609304
:1028500078027093790280937A0290937B020E94AF
:10286000FE0FDF91CF911F910F9108950E94741E6A
:102870000E946D0D0E94811E08950E94861E0E9476
:102880007E0D0E94A01E08950E94171C0E945A1ED1
:102890000E945A0D0E9436140E943D140E94630D3E
:1028A000FBCF80918E0280FF06C06091200170E016
:1028B000660F771F26C081FF04C06091200184E06D
:1028C00005C082FF07C06091200188E0689FB001C9
:1028D000112417C090918D029923D1F060911F01AE
:1028E000961788F72091200188E0289F90011124F5
:1028F000929FA001939F500D112470E0CA010E9485
:10290000B1236038710540F46115710519F406C0F2
:1029100068E070E0862F08958FE7089581E00895BC
:1029200080918E0280FF08C060911C0170E0759557
:1029300067957595679521C081FF06C060911C0160
:1029400070E07595679519C082FF04C060911C0105
:1029500070E010C090918C02992399F060911B0156
:102960009617A0F780911C01899FC001112470E087
:102970000E94B1236038710540F46115710519F4A6
:1029800006C061E070E0862F08958FE7089581E02A
:1029900008958D3C21F40E945114819504C08E3C11
:1029A00029F40E9451148093920208958F3C21F4DF
:1029B0000E945114819504C0803D29F40E94511455
:1029C000809391020895893D19F40E94901405C0E6
:1029D0008A3D31F40E94901481958093930208956A
:1029E0008B3D21F40E949014819504C08C3D29F404
:1029F0000E9490148093940208959FE2980F98305B
:102A000078F421E030E0A90102C0440F551F9A95E7
:102A1000E2F7CA0190919002892B80939002089569
:102A20008D3D21F480918E0281600BC08E3D21F49A
:102A300080918E02826005C08F3D29F480918E02C4
:102A4000846080938E0208958D3C39F490919202B7
:102A500097FF35C01092920259C08E3C29F4909194
:102A600092021916BCF32BC0909191028F3C29F46D
:102A700097FF25C01092910249C0803D19F41916A4
:102A8000CCF31DC090919302893D29F41916BCF432
:102A9000109293023BC08A3D19F497FF10C0F8CF03
:102AA0008B3D39F49091940297FF09C010929402E3
:102AB0002DC08C3D21F4909194021916BCF39FE235
:102AC000980F983080F421E030E0A90102C0440F53
:102AD000551F9A95E2F7CA0180959091900289233B
:102AE0008093900213C08D3D21F480918E028E7FE1
:102AF0000BC08E3D21F480918E028D7F05C08F3DED
:102B000029F480918E028B7F80938E0280919102B6
:102B1000811106C080919202811102C010928D0233
:102B200080919302811106C080919402811102C0AC
:102B300010928C0208950E94801C20919102211114
:102B400004C020919202222321F090938B02809363
:102B50008A0220919302211104C020919402222321
:102B600021F090938902809388028FE892E00E947E
:102B7000AD1A0895EFE8F2E086E0DF011D928A9534
:102B8000E9F710928D0210928C0210928E02089535
:102B9000FC01828181110DC0838181110AC0848171
:102BA000811107C091E08581811101C090E0892FDA
:102BB00001C081E081700895A6E0B0E0E2EEF5E1A9
:102BC0000C94DA2386E0EFE8F2E0DE011196019042
:102BD0000D928A95E1F71092910210929202109252
:102BE0009302109294028B81811104C08C818823FE
:102BF00009F45FC080918A0290918B020E94981C18
:102C0000AC0190918D02992339F02091210130E09F
:102C10002417350758F04DC0209122018AE0289FE3
:102C2000900111242417350718F043C09F3F19F075
:102C30009F5F90938D021B81112361F00E945114BC
:102C4000111614F09FEF01C091E0989F902D112470
:102C5000909391021C81112361F00E94511411166E
:102C600014F09FEF01C091E0989F902D1124909354
:102C70009202309191023323E1F0209192022223BB
:102C8000C1F045EB3403C0011124992319F090934E
:102C9000910203C081E08093910235EB2303C001D0
:102CA0001124992319F09093920203C081E080933C
:102CB00092028D81811104C08E81882309F45FC046
:102CC00080918802909189020E94981CAC01909199
:102CD0008C02992339F020911D0130E0241735072B
:102CE00058F04DC020911E018AE0289F90011124C8
:102CF0002417350718F043C09F3F19F09F5F90934A
:102D00008C021D81112361F00E949014111614F0A1
:102D10009FEF01C091E0989F902D11249093930212
:102D20001E81112361F00E949014111614F09FEF80
:102D300001C091E0989F902D1124909394023091BE
:102D400093023323E1F0209194022223C1F045EB5A
:102D50003403C0011124992319F09093930203C006
:102D600081E08093930235EB2303C0011124992362
:102D700019F09093940203C081E080939402BE0105
:102D80006F5F7F4F8FE892E00E94C91B811105C0E1
:102D90008FE892E00E94C81581110E949B1586E081
:102DA000FE013196AFE8B2E001900D928A95E1F70D
:102DB0002696E3E00C94F6230895FC01680F791F32
:102DC0008FEF91E3E617F70771F02191822728E052
:102DD00030E087FF03C0880F892701C0880F21508A
:102DE0003109B9F7EFCF0895CF93DF93FC01DB01F1
:102DF00015968C91882309F4DDC09F01305723324A
:102E0000310508F0D8C0EF010E946F0C9093C90201
:102E10008093C802FE01E150F047E232F10520F450
:102E2000EE59FF4F0C94C5238091C8028160AAC05F
:102E30008091C9028860B2C08091C8028260A2C03D
:102E40008091C80220C08091C80288609BC0809198
:102E5000C9021EC08091C9028260A0C08091C802D0
:102E6000806190C08091C80280628CC08091C8024D
:102E7000806488C00E94C2068091C802806882C0B7
:102E80008091C802886084607DC08091C9028260A0
:102E9000816084C08091C8028E7F74C08091C90215
:102EA000877F7CC08091C8028D7F6CC08091C802F2
:102EB00020C08091C802877F65C08091C9021EC072
:102EC0008091C9028D7F6AC08091C8028F7E5AC0EE
:102ED0008091C8028F7D56C08091C8028F7B52C0FE
:102EE0000E94C2068091C8028F774CC08091C802B0
:102EF000877F8B7F47C08091C9028D7F8E7F4EC0B8
:102F00008091C80282FB222720F991E0922790FB52
:102F100082F990FB83F936C08091C902982F909571
:102F200091708E7F892B90FB81F938C08091C80207
:102F300086FB222720F991E0922790FB86F922C098
:102F40000E94C2068091C80287FB222720F991E0E7
:102F5000922790FB87F916C081E001C080E00E94B3
:102F6000050D1EC08091C80284FB222720F991E044
:102F7000922790FB84F906C08091C802982F909503
:102F800090FB80F98093C8020BC08091C90283FB3B
:102F9000222720F991E0922790FB83F98093C902C0
:102FA0008091C8029091C9020E94740C0E94C206CE
:102FB00080E001C081E0DF91CF910895CF93DF934E
:102FC00086319C4741F5EB010E94550B982F8D816E
:102FD0002091000130910101882379F09A7A81E0F3
:102FE00009F480E080939502911102C069E201C06A
:102FF00065E3C9010E949B1B0AC080919502811163
:1030000002C069E201C065E3C9010E94A91B0E94D8
:10301000A10B80E001C081E0DF91CF9108950F9373
:103020001F93CF93DF93C42FD22FFC018581882378
:10303000B1F0409398020E94801C90939702809375
:10304000960280E28C0F883008F04DC0C77081E096
:1030500001C0880FCA95EAF70E94660444C08091B7
:103060009802481330C080919602909197020E9476
:10307000981C883C910538F510E21D0FCD17B9F06A
:1030800080E28C0F883040F4C77081E001C0880F67
:10309000CA95EAF70E946D04183010F581E09D2F63
:1030A000977001C0880F9A95EAF70E946604802FF6
:1030B0000E945C041830B8F4D77081E001C0880F1A
:1030C000DA95EAF70AC080E28C0F883060F4C770A6
:1030D00081E001C0880FCA95EAF70E946D0403C021
:1030E000802F0E945C04DF91CF911F910F91089572
:1030F0000F93FC01E851FC47E730F10590F5CB0157
:10310000EC57FF4F0C94C52306E221EE41EE6AE135
:103110007CE723C007E225EE45EE6BE17CE71DC0AE
:1031200006E221EE40EE68E17CE717C007E225EEFB
:1031300044EE69E17CE711C006E221EE42EE6CE16B
:103140007CE70BC007E225EE46EE6DE17CE705C0AB
:1031500008E221E045EE6EE17CE70E940F1880E076
:1031600008C0FB018581882319F01092980201C0E4
:1031700081E00F9108958EE1489B02C08150E1F7F4
:10318000489BFECF0895589880E28A95F1F7589AA7
:103190000895FC012AE02A95F1F728E090E080E00C
:1031A00031E040E14A95F1F7880F489B02C0816009
:1031B000932700C0000040E14A95F1F7215089F7BC
:1031C00020E12A95F1F729B100C0000030E13A95DD
:1031D000F1F7217092272081920F90830895A1E04A
:1031E000B0E0E5EFF8E10C94D72319828C017C0163
:1031F000E60EF11C0E151F0551F00E94BB18CE0102
:1032000001960E94C918F80181938F01F3CF81E0E4
:103210009981911180E02196E6E00C94F323509A75
:10322000589A08955098589AE89AE9E6F0E0808113
:103230008C7F80830895615091E001C0990F6A9559
:10324000EAF720E031E0992361F0492F482319F093
:10325000589A232701C0589840E24A95F1F796956D
:10326000F2CF222311F0589A01C0589880E28A9533
:10327000F1F758980895FF920F931F93CF93DF9320
:10328000EC018C01060F111DC017D10741F0F99018
:103290000E94C31868E08F2D0E941B19F5CFCDB78F
:1032A000DEB7E5E00C94F4231F920F920FB60F9255
:1032B00011240F931F932F933F934F935F936F931B
:1032C0007F938F939F93AF93BF93EF93FF93CF938E
:1032D000DF931F92CDB7DEB719820E94BB18CE01D3
:1032E00001960E94C918082F069506950695902FFD
:1032F00096959570202F2570920F292F2370969503
:103300009695920F877089135FC0898181115CC087
:10331000043008F059C080E18A95F1F7589A509A24
:1033200082E08A95F1F700C0589888E0089F8001F4
:103330001124D801AD5FBE4F1696ED91FC91179701
:103340003097A9F06091A8017091A90114962D9170
:103350003C911597260F371F11968D919C911297CE
:10336000680F791F13964C9113978C910995F8016A
:10337000ED5FFE4F6381662351F08091A80190912B
:10338000A90124813581820F931F0E943B190E945D
:10339000C31880E18A95F1F758985098589A80E1BF
:1033A0008A95F1F7F801ED5FFE4F6081662351F0D9
:1033B0008091A8019091A90121813281820F931FF0
:1033C0000E94EF180E94BB180F90DF91CF91FF91E0
:1033D000EF91BF91AF919F918F917F916F915F918D
:1033E0004F913F912F911F910F910F900FBE0F9012
:1033F0001F9018950F931F93CF93DF9384309105FF
:103400000CF06DC0EC01F894509A589885E08A95BC
:10341000F1F700009C2F969595702C2F2570920F38
:10342000892F83709695969523E0CC0FDD1F2A9502
:10343000E1F7980F8E01092B0E94C31884E08A954A
:10344000F1F700C068E0802F0E941B1980E18A9587
:10345000F1F75098589A489902C000C0FCCF87E015
:1034600090E0489B08C0019721F4509A589A7894AC
:1034700036C000C0F6CFFE01ED5FFE4F63816623CC
:1034800081F08091A8019091A90124813581820F5A
:10349000931F0E94EF18811104C0509A589A789493
:1034A0001FC00E94BB1880E28A95F1F75898509A85
:1034B00080E18A95F1F7CD5FDE4F6881662351F098
:1034C0008091A8019091A90129813A81820F931FCF
:1034D0000E943B190E94C318789481E001C080E0EB
:1034E000DF91CF911F910F9108959093AB0180933D
:1034F000AA01089590939F0280939E0208950E94CE
:103500002212811103C0809199020895E0919E02D8
:10351000F0919F02309729F00190F081E02D0995FC
:10352000089580E00895FC01A0919E02B0919F0251
:10353000109791F080912B01882341F08091C8026F
:1035400087FF04C08081818386E08083CF0112964B
:10355000ED91FC91139709950895E0919E02F091E9
:103560009F02309739F022E0DC012C930480F58132
:10357000E02D09950895A3E0B0E0E1ECFAE10C94A8
:10358000DB2320919C0230919D0228173907A1F07E
:1035900090939D0280939C02E0919E02F0919F0285
:1035A000309751F023E029839B838A830680F7813B
:1035B000E02DCE01019609952396E2E00C94F723C5
:1035C000A3E0B0E0E6EEFAE10C94DB2320919A024E
:1035D00030919B0228173907A1F090939B028093AA
:1035E0009A02E0919E02F0919F02309751F024E000
:1035F00029839B838A830680F781E02DCE01019683
:1036000009952396E2E00C94F723FC013296809111
:103610002B01882331F08091C80287FF02C09EE110
:1036200001C096E080E0915028F021912223D9F347
:103630008F5FF9CF0895662351F120912B0122234A
:10364000E9F02091C80227FF19C0462F46954695FC
:1036500046954E31E0F4677021E030E002C0220F61
:10366000331F6A95E2F7FC01E40FF11D828190E0BF
:103670002823392381E0232B69F409C0FC01329609
:1036800008962191621729F0E817F907D1F780E031
:10369000089581E008959C01FC0132969FEF80E03F
:1036A0004191461789F09F3F19F4411101C0982FAD
:1036B0008F5F8630A9F79F3F39F0F901E90FF11DBF
:1036C00097FDFA956283089508959C012A5F3F4F04
:1036D000FC014281461301C01282019682179307B2
:1036E000B9F70895262F2695269526952E3168F44C
:1036F000FC01E20FF11D677021E030E001C0220FF4
:103700006A95EAF78281282B22830895262F269531
:10371000269526952E3170F4FC01E20FF11D67709D
:1037200021E030E001C0220F6A95EAF720958281FE
:1037300028232283089520912B01222339F0209100
:10374000C80227FF03C00E94721B08950E944B1BF2
:10375000089520912B01222339F02091C80227FFE0
:1037600003C00E94861B08950E94651B0895209146
:103770002B01FC013296222331F08091C80287FF91
:1037800002C08EE101C086E0DF011D928A95E9F753
:10379000089546E050E00E94162421E0892B09F4A8
:1037A00020E0822F089508950E94D31B089583E09E
:1037B0008093A0020E94D41B0895811102C081E071
:1037C00001C082E08093A0020E94D41B08950E9451
:1037D000DD1B089581E08093A0020E94D41B089510
:1037E0000E94EA1B089508950E94F31B08950E9409
:1037F000F41B08950E94F31B08950E94F31B089583
:103800000E94F31B0895CF930E94FD1B0E94A711F5
:103810000E94FA1BC0E08C2F0E947210811104C01C
:10382000CF5FC830C1F701C081E0CF91089585B75F
:10383000806885BF85B7806885BF08951F920F9205
:103840000FB60F9211248F939F93AF93BF938091E4
:10385000A102811113C08091DC029091DD02A09140
:10386000DE02B091DF024196A11DB11D8093DC0202
:103870009093DD02A093DE02B093DF02BF91AF917F
:103880009F918F910F900FBE0F901F901895809170
:10389000E402843031F10E9427031092A10220E457
:1038A00088E190E00FB6F894A895809360000FBE71
:1038B0002093600083B7817F846083BF83B781607A
:1038C00083BF7894889583B78E7F83BF0FB6F894B3
:1038D000A8958091600088618093600010926000DC
:1038E0000FBE08950E94C2060E942C03089582E034
:1038F00084BD93E095BD9AEF97BD80936E000895C7
:103900002FB7F8948091DC029091DD02A091DE0245
:10391000B091DF022FBF08952FB7F8946091DC02B9
:103920007091DD028091DE029091DF022FBF089539
:103930009C014FB7F8948091DC029091DD02A09138
:10394000DE02B091DF024FBF821B930B0895CF922E
:10395000DF92EF92FF922FB7F894C090DC02D090E4
:10396000DD02E090DE02F090DF022FBFA70196019A
:10397000261B370B480B590BCA01B901FF90EF907A
:10398000DF90CF90089578941F920F920FB60F9208
:1039900011248F939F93AF93BF938091DC029091FA
:1039A000DD02A091DE02B091DF020196A11DB11DE2
:1039B0008093DC029093DD02A093DE02B093DF02DD
:1039C000BF91AF919F918F910F900FBE0F901F905D
:1039D000189587E797E790930108809300089AE08D
:1039E00088E10FB6F894A895809360000FBE90937D
:1039F0006000FFCF9AE088E10FB6F894A895809315
:103A000060000FBE90936000FFCF8091C2020895C6
:103A10009B019091E4029430F1F48F708093E9005F
:103A20008FEF9091E800815095FD06C095ED9A9535
:103A3000F1F700008111F5CF8091E80085FF0BC000
:103A4000BA01C90140E050E00E94181F8091E800CF
:103A50008E778093E800089543E050E0BC0182E057
:103A60000E94081D089546E050E0BC0182E00E94DB
:103A7000081D0895CF93DF93EC0180912B018111F4
:103A800005C048E050E0BE0181E00BC08091C80253
:103A900087FF03C040E282E002C048E081E050E0DE
:103AA000BE010E94081D80E2FE01A2EAB2E0019080
:103AB0000D928A95E1F7DF91CF9108958091E3020D
:103AC000811109C00E94A3200E9400218091E20080
:103AD00084608093E20008951092E30208950E94AA
:103AE000F01B08956091E00281E0611101C080E067
:103AF0000E94D71B08959091E40281E0943009F070
:103B000080E06091E0020E94DD1B089542E061ECDC
:103B100081E00E941C2042E261EC82E00E941C20B5
:103B20009091E40281E0943009F080E06091E0023D
:103B30000E94E71B08958091E602833009F461C07A
:103B400030F4813071F0823009F49BC008958A30DE
:103B500009F487C08B3009F46CC0893009F0A9C022
:103B600020C08091E502813A09F0A3C08091E8006D
:103B7000877F8093E8008091E9029091EA02892B87
:103B800021F460E282EA92E003C060E080E090E02D
:103B900070E00E945D1F8091E8008B778093E800C1
:103BA00008958091E502813209F083C08091E90295
:103BB0009091EA02029708F07CC08091E800877F2C
:103BC0008093E8008091E80082FD05C08091E402C6
:103BD0008111F8CF6EC02091F3008091F20090E047
:103BE000922B029731F48091F100813011F08630F0
:103BF00021F48091F1008093C2028091E8008B77DC
:103C000054C08091E502813A09F053C08091E902E5
:103C10009091EA02892B09F04CC08091E800877FDF
:103C20008093E8008091E80080FFFCCF80912B0119
:103C300037C08091E5028132E1F58091E9029091EF
:103C4000EA02892BB1F58091E800877F8093E80034
:103C50000E9451208091E70280932B010E94C206AE
:103C600008958091E502813221F58091E800877FF7
:103C70008093E8000E9451208091E8028093C30263
:103C800008958091E502813AA1F48091E800877F50
:103C90008093E8008091E80080FFFCCF8091C30210
:103CA0008093F1008091E8008E778093E8000E9475
:103CB0005120089584B7877F84BF0FB6F894A895E4
:103CC00080916000886180936000109260000FBE58
:103CD00090E080E80FB6F8948093610090936100C3
:103CE0000FBE0E94EA1B08950E94A3200E9400219B
:103CF000E2EEF0E080818460808378940E948B23E0
:103D0000089583E291E00E947A1A08958091E40276
:103D10008530A9F48091E402853079F40E94471C33
:103D20008091E2028823B1F30E94031C882391F35F
:103D30000E94021F0E94C206EDCF0E94721C0895CD
:103D400008959A014091EB025091EC020E94A91E45
:103D50000895492F552743305105C9F060F441308B
:103D6000510581F04230510509F044C08BE390E0E9
:103D70004CEE52E043C041325105E1F04232510570
:103D800049F138C082E190E047E253E037C099271B
:103D90008130910549F028F0029761F5EAEAF2E0F6
:103DA00005C0E8EEF2E002C0ECEDF2E0849190E0B4
:103DB000AF0124C06115710541F061307105D1F486
:103DC00089E090E047E153E019C089E090E04EEFD0
:103DD00052E014C06115710541F06130710551F474
:103DE00086EB90E049E353E009C080E490E04FEEB9
:103DF00053E004C080E090E040E050E0F9015183DE
:103E00004083089580E189BD82E189BD09B400FE47
:103E1000FDCF8091D8008F7D8093D8008091E00005
:103E200082608093E0008091E00081FDFCCF0895E6
:103E3000A0E0B0E0EEE1FFE10C94D523EC018B01B2
:103E40007A010E947020811133C0E114F10439F02D
:103E5000F70180819181081B190BC80FD91FC12C54
:103E6000D12C0115110519F18091E80085FD16C0CE
:103E70008091E8008E778093E800E114F10449F026
:103E8000F70180819181C80ED91ED182C08285E060
:103E90000FC00E947020882321F30AC0899180936B
:103EA000F10001501109FFEFCF1ADF0ADACF80E0ED
:103EB000CDB7DEB7E8E00C94F1232091EB0230910E
:103EC000EC022617370748F06115710539F4209187
:103ED000E8002E772093E80001C0B901FC0120E042
:103EE0006115710579F18091E4028823F1F1853043
:103EF000F1F18091E80083FD3CC08091E80082FDF3
:103F00002EC08091E80080FFEBCF2091F3008091DC
:103F1000F20090E0922B6115710551F08830910507
:103F200038F421912093F100615071090196F3CF8B
:103F300021E0089709F020E08091E8008E778093D7
:103F4000E800CECF2111CFCF0AC08091E4028823B0
:103F500061F0853061F08091E80083FD0AC08091B6
:103F6000E80082FFF2CF80E0089582E0089583E0C8
:103F7000089581E008952091EB023091EC0226171C
:103F8000370748F06115710539F42091E8002E7764
:103F90002093E80001C0B901FC0120E06115710522
:103FA00091F18091E402882309F440C0853009F43E
:103FB0003FC08091E80083FD3DC08091E80082FD14
:103FC0002FC08091E80080FFE9CF2091F30080911D
:103FD000F20090E0922B6115710559F0883091053F
:103FE00040F424912093F1003196615071090196BB
:103FF000F2CF21E0089709F020E08091E8008E7769
:104000008093E800CBCF2111CCCF0AC08091E4028D
:10401000882361F0853061F08091E80083FD0AC05B
:104020008091E80082FFF2CF80E0089582E0089559
:1040300083E0089581E00895982F973068F5909374
:10404000E900981739F07091EC002091ED00509143
:10405000F00003C0242F762F50E021FD02C09F5FA7
:10406000ECCF3091EB003E7F3093EB003091ED00D0
:104070003D7F3093ED003091EB0031603093EB00E9
:104080007093EC002093ED005093F0002091EE002F
:1040900027FDE5CF80E008958F708093E90081E0EF
:1040A00008958091E50287FF11C08091E80082FDAC
:1040B00005C08091E4028111F8CF11C08091E80021
:1040C0008B770BC08091E402882349F08091E8004F
:1040D00080FFF8CF8091E8008E778093E800089504
:1040E0002091E4003091E50095E64091EC00842FAA
:1040F000817040FF23C08091E80080FD1DC0809149
:10410000E402882399F0853099F08091EB0085FDD9
:1041100011C04091E4005091E5002417350729F3C0
:10412000915011F09A01E1CF84E0089582E0089562
:1041300083E0089581E0089580E008954091E800CB
:1041400042FFDDCF08950E9412210E941A21E0EE65
:10415000F0E0808181608083E8EDF0E080818F77FE
:10416000808319BCA7EDB0E08C918E7F8C93808109
:104170008F7E80831092E30208950F931F93CF9355
:10418000DF930E9412210E941A21C8EDD0E088819D
:104190008F77888388818068888388818F7D8883F2
:1041A00019BC1092E4021092E0021092E202109206
:1041B000E10200EE10E0F80180818B7F808388812E
:1041C0008160888342E060E080E00E941C20E1EE94
:1041D000F0E080818E7F8083E2EEF0E0808181607C
:1041E0008083808188608083F80180818E7F8083D6
:1041F000888180618883DF91CF911F910F9108950D
:10420000E8EDF0E080818F7E8083E7EDF0E0808153
:104210008160808384E082BF81E08093E3020E941A
:10422000BD200895E8EDF0E080818E7F80831092BC
:10423000E20008951092DA001092E10008951F92B2
:104240000F920FB60F9211242F933F934F935F93CA
:104250006F937F938F939F93AF93BF93EF93FF934E
:104260008091E10082FF0BC08091E20082FF07C0D5
:104270008091E1008B7F8093E1000E948A238091EE
:10428000DA0080FF1FC08091D80080FF1BC08091A2
:10429000DA008E7F8093DA008091D90080FF0DC014
:1042A00080E189BD82E189BD09B400FEFDCF81E0D6
:1042B0008093E4020E945E1D05C019BC1092E402C6
:1042C0000E946C1D8091E10080FF19C08091E20086
:1042D00080FF15C08091E2008E7F8093E200809184
:1042E000E20080618093E2008091D8008062809338
:1042F000D80019BC85E08093E4020E94721D809171
:10430000E10084FF30C08091E20084FF2CC080E196
:1043100089BD82E189BD09B400FEFDCF8091D8003E
:104320008F7D8093D8008091E1008F7E8093E100A3
:104330008091E2008F7E8093E2008091E2008160B4
:104340008093E2008091E002882311F084E007C0AE
:104350008091E30087FD02C081E001C083E080938B
:10436000E4020E947B1D8091E10083FF29C08091BF
:10437000E20083FF25C08091E100877F8093E10008
:1043800082E08093E4021092E0028091E1008E7F4F
:104390008093E1008091E2008E7F8093E200809123
:1043A000E20080618093E20042E060E080E00E94F1
:1043B0001C208091F00088608093F0000E946F1DA7
:1043C000FF91EF91BF91AF919F918F917F916F91ED
:1043D0005F914F913F912F910F900FBE0F901F90C3
:1043E00018951F920F920FB60F9211242F933F939F
:1043F0004F935F936F937F938F939F93AF93BF93ED
:10440000CF93DF93EF93FF93C091E900CF7080913A
:10441000EC00D82FD17080FDD0E81092E900809197
:10442000F000877F8093F00078940E9435221092EC
:10443000E9008091F00088608093F000CD2BCF7070
:10444000C093E900FF91EF91DF91CF91BF91AF91C0
:104450009F918F917F916F915F914F913F912F919C
:104460000F900FBE0F901F901895AAE2B0E0EBE3FB
:10447000F2E20C94DA23E5EEF2E08091F100819310
:1044800022E0ED3EF207C9F70E949B1D8091E800F3
:1044900083FF2EC18091E5029091E602492F50E002
:1044A0004A30510508F024C1FA01E557FF4F0C943A
:1044B000C523803821F0823809F01AC108C08091E4
:1044C000E1029091E202992389F082600FC080910D
:1044D000E9028F70873008F00BC18093E90080916A
:1044E000EB0085FB882780F91092E9009091E800A5
:1044F000977F9093E8008093F1001092F100D1C073
:10450000282F2D7F09F0F4C0882319F0823061F044
:10451000EFC08091E702813009F0EAC0933009F0E2
:1045200080E08093E2022EC08091E70281112AC0D0
:104530008091E9028F702FEF280F263008F0D8C045
:104540008093E9002091EB0020FF1CC0933021F400
:104550008091EB00806214C09091EB009061909389
:10456000EB0021E030E0A90102C0440F551F8A95FD
:10457000E2F74093EA001092EA008091EB00886035
:104580008093EB001092E9008091E800877F809390
:10459000E8000E945120ACC08111AAC01091E7022E
:1045A0001F778091E3008078812B8093E3008091D6
:1045B000E800877F8093E8000E9451208091E80006
:1045C00080FFFCCF8091E30080688093E3001111AD
:1045D00002C082E001C083E08093E40289C0805879
:1045E000823008F085C08091E7029091E8028C3D0E
:1045F00053E0950779F583E08A838AE289834FB790
:10460000F894DE01139620E03EE051E2E32FF0E063
:1046100050935700E49120FF03C0E295EF703F5F95
:10462000EF708E2F90E0EA3010F0C79601C0C09670
:104630008D939D932F5F243149F74FBF8091E80000
:10464000877F8093E8006AE270E0CE0101960E94C5
:104650005D1F16C06091E9027091EA02AE014F5FE2
:104660005F4F0E94A11EBC01892B09F441C09091AB
:10467000E800977F9093E80089819A810E94BB1F90
:104680008091E8008B778093E80032C0803881F514
:104690008091E800877F8093E8008091E00280931A
:1046A000F1008091E8008E7772CF811121C0809156
:1046B000E7029091E80299270297D4F48091E800EC
:1046C000877F8093E8008091E7028093E0020E9458
:1046D00051208091E002811106C08091E30087FDA6
:1046E00002C081E001C084E08093E4020E94861D44
:1046F0008091E80083FF0AC08091E800877F809363
:10470000E8008091EB0080628093EB00AA96E3E0E2
:104710000C94F6230895CF938091E4028823A1F0AE
:10472000C091E900CF709091EC00892F817090FDCD
:1047300080E8C82B1092E9008091E80083FD0E9478
:104740003522CF70C093E900CF9108950E94A32035
:104750001092E40208958091E300881F8827881F43
:10476000089597FB072E16F4009407D077FD09D023
:104770000E94022407FC05D03EF4909581959F4F3E
:104780000895709561957F4F0895EE0FFF1F059076
:10479000F491E02D09942F923F924F925F926F9285
:1047A0007F928F929F92AF92BF92CF92DF92EF92C1
:1047B000FF920F931F93CF93DF93CDB7DEB7CA1B42
:1047C000DB0B0FB6F894DEBF0FBECDBF09942A886D
:1047D000398848885F846E847D848C849B84AA8415
:1047E000B984C884DF80EE80FD800C811B81AA81A2
:1047F000B981CE0FD11D0FB6F894DEBF0FBECDBF6D
:10480000ED010895AA1BBB1B51E107C0AA1FBB1FE6
:10481000A617B70710F0A61BB70B881F991F5A954C
:10482000A9F780959095BC01CD010895FB01DC01AD
:1048300004C08D910190801921F441505040C8F777
:10484000881B990B0895FB01DC0102C001900D92B9
:1048500041505040D8F70895F999FECF92BD81BDDF
:10486000F89A992780B50895A8E1B0E042E050E0B9
:104870000C947024DC01A40FB51F4150504048F047
:10488000CB01840F951F2E910E944B244150504024
:10489000D0F70895262FF999FECF92BD81BDF89AE1
:1048A000019700B4021639F01FBA20BD0FB6F89474
:1048B000FA9AF99A0FBE08950396272F0E944B2467
:1048C0000E944A24252F0E944B24242F0C944B2411
:1048D0000196272F0E944B240C944A24DC01CB0123
:1048E000FC01F999FECF06C0F2BDE1BDF89A319600
:1048F00000B40D9241505040B8F70895F894FFCF9E
:10490000320201000000010000000000000004016C
:104910000000000405000000000000280850011EEF
:104920000A1401051D3A1D331D2C1D01E200E9008A
:10493000EA00B500B600B700CD008301CC008A01C3
:104940009201940121022302240225022602270259
:104950002A02B300B4006F0070009F01CB019F02D8
:10496000A002818283E200E900EA00B500B600B748
:1049700000CD008301CC008A019201940121022321
:104980000224022502260227022A02B300B4006F85
:104990000070009F01CB019F02A002818283F4F589
:0A49A000F6F73133946697C66F02F4
:00000001FF
